{
  "_format": "hh-sol-artifact-1",
  "contractName": "SupplyChainToken",
  "sourceName": "contracts/Token.sol",
  "abi": [
    {
      "inputs": [],
      "stateMutability": "nonpayable",
      "type": "constructor"
    },
    {
      "anonymous": false,
      "inputs": [
        {
          "indexed": true,
          "internalType": "address",
          "name": "account",
          "type": "address"
        },
        {
          "indexed": true,
          "internalType": "address",
          "name": "operator",
          "type": "address"
        },
        {
          "indexed": false,
          "internalType": "bool",
          "name": "approved",
          "type": "bool"
        }
      ],
      "name": "ApprovalForAll",
      "type": "event"
    },
    {
      "anonymous": false,
      "inputs": [
        {
          "indexed": true,
          "internalType": "bytes32",
          "name": "role",
          "type": "bytes32"
        },
        {
          "indexed": true,
          "internalType": "bytes32",
          "name": "previousAdminRole",
          "type": "bytes32"
        },
        {
          "indexed": true,
          "internalType": "bytes32",
          "name": "newAdminRole",
          "type": "bytes32"
        }
      ],
      "name": "RoleAdminChanged",
      "type": "event"
    },
    {
      "anonymous": false,
      "inputs": [
        {
          "indexed": true,
          "internalType": "bytes32",
          "name": "role",
          "type": "bytes32"
        },
        {
          "indexed": true,
          "internalType": "address",
          "name": "account",
          "type": "address"
        },
        {
          "indexed": true,
          "internalType": "address",
          "name": "sender",
          "type": "address"
        }
      ],
      "name": "RoleGranted",
      "type": "event"
    },
    {
      "anonymous": false,
      "inputs": [
        {
          "indexed": true,
          "internalType": "bytes32",
          "name": "role",
          "type": "bytes32"
        },
        {
          "indexed": true,
          "internalType": "address",
          "name": "account",
          "type": "address"
        },
        {
          "indexed": true,
          "internalType": "address",
          "name": "sender",
          "type": "address"
        }
      ],
      "name": "RoleRevoked",
      "type": "event"
    },
    {
      "anonymous": false,
      "inputs": [
        {
          "indexed": true,
          "internalType": "address",
          "name": "operator",
          "type": "address"
        },
        {
          "indexed": true,
          "internalType": "address",
          "name": "from",
          "type": "address"
        },
        {
          "indexed": true,
          "internalType": "address",
          "name": "to",
          "type": "address"
        },
        {
          "indexed": false,
          "internalType": "uint256[]",
          "name": "ids",
          "type": "uint256[]"
        },
        {
          "indexed": false,
          "internalType": "uint256[]",
          "name": "values",
          "type": "uint256[]"
        }
      ],
      "name": "TransferBatch",
      "type": "event"
    },
    {
      "anonymous": false,
      "inputs": [
        {
          "indexed": true,
          "internalType": "address",
          "name": "operator",
          "type": "address"
        },
        {
          "indexed": true,
          "internalType": "address",
          "name": "from",
          "type": "address"
        },
        {
          "indexed": true,
          "internalType": "address",
          "name": "to",
          "type": "address"
        },
        {
          "indexed": false,
          "internalType": "uint256",
          "name": "id",
          "type": "uint256"
        },
        {
          "indexed": false,
          "internalType": "uint256",
          "name": "value",
          "type": "uint256"
        }
      ],
      "name": "TransferSingle",
      "type": "event"
    },
    {
      "anonymous": false,
      "inputs": [
        {
          "indexed": false,
          "internalType": "string",
          "name": "value",
          "type": "string"
        },
        {
          "indexed": true,
          "internalType": "uint256",
          "name": "id",
          "type": "uint256"
        }
      ],
      "name": "URI",
      "type": "event"
    },
    {
      "inputs": [],
      "name": "DEFAULT_ADMIN_ROLE",
      "outputs": [
        {
          "internalType": "bytes32",
          "name": "",
          "type": "bytes32"
        }
      ],
      "stateMutability": "view",
      "type": "function"
    },
    {
      "inputs": [],
      "name": "DENIMFABRIC",
      "outputs": [
        {
          "internalType": "uint256",
          "name": "",
          "type": "uint256"
        }
      ],
      "stateMutability": "view",
      "type": "function"
    },
    {
      "inputs": [],
      "name": "JEANSSEWED",
      "outputs": [
        {
          "internalType": "uint256",
          "name": "",
          "type": "uint256"
        }
      ],
      "stateMutability": "view",
      "type": "function"
    },
    {
      "inputs": [],
      "name": "MINTER_ROLE",
      "outputs": [
        {
          "internalType": "bytes32",
          "name": "",
          "type": "bytes32"
        }
      ],
      "stateMutability": "view",
      "type": "function"
    },
    {
      "inputs": [],
      "name": "PATTERNPAPER",
      "outputs": [
        {
          "internalType": "uint256",
          "name": "",
          "type": "uint256"
        }
      ],
      "stateMutability": "view",
      "type": "function"
    },
    {
      "inputs": [],
      "name": "SIEGEBAND",
      "outputs": [
        {
          "internalType": "uint256",
          "name": "",
          "type": "uint256"
        }
      ],
      "stateMutability": "view",
      "type": "function"
    },
    {
      "inputs": [],
      "name": "STITCHINGYARN",
      "outputs": [
        {
          "internalType": "uint256",
          "name": "",
          "type": "uint256"
        }
      ],
      "stateMutability": "view",
      "type": "function"
    },
    {
      "inputs": [],
      "name": "URI_SETTER_ROLE",
      "outputs": [
        {
          "internalType": "bytes32",
          "name": "",
          "type": "bytes32"
        }
      ],
      "stateMutability": "view",
      "type": "function"
    },
    {
      "inputs": [],
      "name": "ZIPPER",
      "outputs": [
        {
          "internalType": "uint256",
          "name": "",
          "type": "uint256"
        }
      ],
      "stateMutability": "view",
      "type": "function"
    },
    {
      "inputs": [
        {
          "internalType": "address",
          "name": "account",
          "type": "address"
        },
        {
          "internalType": "uint256",
          "name": "id",
          "type": "uint256"
        }
      ],
      "name": "balanceOf",
      "outputs": [
        {
          "internalType": "uint256",
          "name": "",
          "type": "uint256"
        }
      ],
      "stateMutability": "view",
      "type": "function"
    },
    {
      "inputs": [
        {
          "internalType": "address[]",
          "name": "accounts",
          "type": "address[]"
        },
        {
          "internalType": "uint256[]",
          "name": "ids",
          "type": "uint256[]"
        }
      ],
      "name": "balanceOfBatch",
      "outputs": [
        {
          "internalType": "uint256[]",
          "name": "",
          "type": "uint256[]"
        }
      ],
      "stateMutability": "view",
      "type": "function"
    },
    {
      "inputs": [
        {
          "internalType": "address",
          "name": "account",
          "type": "address"
        },
        {
          "internalType": "uint256",
          "name": "id",
          "type": "uint256"
        },
        {
          "internalType": "uint256",
          "name": "value",
          "type": "uint256"
        }
      ],
      "name": "burn",
      "outputs": [],
      "stateMutability": "nonpayable",
      "type": "function"
    },
    {
      "inputs": [
        {
          "internalType": "address",
          "name": "account",
          "type": "address"
        },
        {
          "internalType": "uint256[]",
          "name": "ids",
          "type": "uint256[]"
        },
        {
          "internalType": "uint256[]",
          "name": "values",
          "type": "uint256[]"
        }
      ],
      "name": "burnBatch",
      "outputs": [],
      "stateMutability": "nonpayable",
      "type": "function"
    },
    {
      "inputs": [
        {
          "internalType": "uint256",
          "name": "id",
          "type": "uint256"
        }
      ],
      "name": "exists",
      "outputs": [
        {
          "internalType": "bool",
          "name": "",
          "type": "bool"
        }
      ],
      "stateMutability": "view",
      "type": "function"
    },
    {
      "inputs": [
        {
          "internalType": "bytes32",
          "name": "role",
          "type": "bytes32"
        }
      ],
      "name": "getRoleAdmin",
      "outputs": [
        {
          "internalType": "bytes32",
          "name": "",
          "type": "bytes32"
        }
      ],
      "stateMutability": "view",
      "type": "function"
    },
    {
      "inputs": [
        {
          "internalType": "bytes32",
          "name": "role",
          "type": "bytes32"
        },
        {
          "internalType": "address",
          "name": "account",
          "type": "address"
        }
      ],
      "name": "grantRole",
      "outputs": [],
      "stateMutability": "nonpayable",
      "type": "function"
    },
    {
      "inputs": [
        {
          "internalType": "bytes32",
          "name": "role",
          "type": "bytes32"
        },
        {
          "internalType": "address",
          "name": "account",
          "type": "address"
        }
      ],
      "name": "hasRole",
      "outputs": [
        {
          "internalType": "bool",
          "name": "",
          "type": "bool"
        }
      ],
      "stateMutability": "view",
      "type": "function"
    },
    {
      "inputs": [
        {
          "internalType": "address",
          "name": "account",
          "type": "address"
        },
        {
          "internalType": "address",
          "name": "operator",
          "type": "address"
        }
      ],
      "name": "isApprovedForAll",
      "outputs": [
        {
          "internalType": "bool",
          "name": "",
          "type": "bool"
        }
      ],
      "stateMutability": "view",
      "type": "function"
    },
    {
      "inputs": [
        {
          "internalType": "uint256[]",
          "name": "ids",
          "type": "uint256[]"
        },
        {
          "internalType": "uint256[]",
          "name": "amounts",
          "type": "uint256[]"
        }
      ],
      "name": "mintBatch",
      "outputs": [],
      "stateMutability": "nonpayable",
      "type": "function"
    },
    {
      "inputs": [
        {
          "internalType": "uint256",
          "name": "id",
          "type": "uint256"
        },
        {
          "internalType": "uint256",
          "name": "amount",
          "type": "uint256"
        }
      ],
      "name": "normal_mint",
      "outputs": [],
      "stateMutability": "nonpayable",
      "type": "function"
    },
    {
      "inputs": [
        {
          "internalType": "bytes32",
          "name": "role",
          "type": "bytes32"
        },
        {
          "internalType": "address",
          "name": "account",
          "type": "address"
        }
      ],
      "name": "renounceRole",
      "outputs": [],
      "stateMutability": "nonpayable",
      "type": "function"
    },
    {
      "inputs": [
        {
          "internalType": "bytes32",
          "name": "role",
          "type": "bytes32"
        },
        {
          "internalType": "address",
          "name": "account",
          "type": "address"
        }
      ],
      "name": "revokeRole",
      "outputs": [],
      "stateMutability": "nonpayable",
      "type": "function"
    },
    {
      "inputs": [
        {
          "internalType": "address",
          "name": "from",
          "type": "address"
        },
        {
          "internalType": "address",
          "name": "to",
          "type": "address"
        },
        {
          "internalType": "uint256[]",
          "name": "ids",
          "type": "uint256[]"
        },
        {
          "internalType": "uint256[]",
          "name": "amounts",
          "type": "uint256[]"
        },
        {
          "internalType": "bytes",
          "name": "data",
          "type": "bytes"
        }
      ],
      "name": "safeBatchTransferFrom",
      "outputs": [],
      "stateMutability": "nonpayable",
      "type": "function"
    },
    {
      "inputs": [
        {
          "internalType": "address",
          "name": "from",
          "type": "address"
        },
        {
          "internalType": "address",
          "name": "to",
          "type": "address"
        },
        {
          "internalType": "uint256",
          "name": "id",
          "type": "uint256"
        },
        {
          "internalType": "uint256",
          "name": "amount",
          "type": "uint256"
        },
        {
          "internalType": "bytes",
          "name": "data",
          "type": "bytes"
        }
      ],
      "name": "safeTransferFrom",
      "outputs": [],
      "stateMutability": "nonpayable",
      "type": "function"
    },
    {
      "inputs": [
        {
          "internalType": "address",
          "name": "operator",
          "type": "address"
        },
        {
          "internalType": "bool",
          "name": "approved",
          "type": "bool"
        }
      ],
      "name": "setApprovalForAll",
      "outputs": [],
      "stateMutability": "nonpayable",
      "type": "function"
    },
    {
      "inputs": [
        {
          "internalType": "bytes4",
          "name": "interfaceId",
          "type": "bytes4"
        }
      ],
      "name": "supportsInterface",
      "outputs": [
        {
          "internalType": "bool",
          "name": "",
          "type": "bool"
        }
      ],
      "stateMutability": "view",
      "type": "function"
    },
    {
      "inputs": [
        {
          "internalType": "uint256",
          "name": "id",
          "type": "uint256"
        }
      ],
      "name": "totalSupply",
      "outputs": [
        {
          "internalType": "uint256",
          "name": "",
          "type": "uint256"
        }
      ],
      "stateMutability": "view",
      "type": "function"
    },
    {
      "inputs": [
        {
          "internalType": "uint256",
          "name": "tokenId",
          "type": "uint256"
        }
      ],
      "name": "uri",
      "outputs": [
        {
          "internalType": "string",
          "name": "",
          "type": "string"
        }
      ],
      "stateMutability": "view",
      "type": "function"
    },
    {
      "inputs": [
        {
          "internalType": "uint256",
          "name": "id",
          "type": "uint256"
        },
        {
          "internalType": "uint256",
          "name": "amount",
          "type": "uint256"
        },
        {
          "internalType": "string",
          "name": "tokenURI",
          "type": "string"
        }
      ],
      "name": "uri_set_mint",
      "outputs": [],
      "stateMutability": "nonpayable",
      "type": "function"
    }
  ],
  "bytecode": "0x608060405260405180602001604052806000815250600390805190602001906200002b92919062000266565b503480156200003957600080fd5b506040518060800160405280604c815260200162004c15604c91396200006581620000e560201b60201c565b506200007b6000801b336200010160201b60201c565b620000ad7f7804d923f43a17d325d77e781528e0793b2edd9890ab45fc64efd7b4b427744c336200010160201b60201c565b620000df7f9f2df0fed2c77648de5860a4cc508cd0818c85b8b8a1ab4ceeef8d981c8956a6336200010160201b60201c565b6200037b565b8060029080519060200190620000fd92919062000266565b5050565b620001138282620001f360201b60201c565b620001ef5760016005600084815260200190815260200160002060000160008373ffffffffffffffffffffffffffffffffffffffff1673ffffffffffffffffffffffffffffffffffffffff16815260200190815260200160002060006101000a81548160ff021916908315150217905550620001946200025e60201b60201c565b73ffffffffffffffffffffffffffffffffffffffff168173ffffffffffffffffffffffffffffffffffffffff16837f2f8788117e7eff1d82e926ec794901d17c78024a50270940304540a733656f0d60405160405180910390a45b5050565b60006005600084815260200190815260200160002060000160008373ffffffffffffffffffffffffffffffffffffffff1673ffffffffffffffffffffffffffffffffffffffff16815260200190815260200160002060009054906101000a900460ff16905092915050565b600033905090565b828054620002749062000345565b90600052602060002090601f016020900481019282620002985760008555620002e4565b82601f10620002b357805160ff1916838001178555620002e4565b82800160010185558215620002e4579182015b82811115620002e3578251825591602001919060010190620002c6565b5b509050620002f39190620002f7565b5090565b5b8082111562000312576000816000905550600101620002f8565b5090565b7f4e487b7100000000000000000000000000000000000000000000000000000000600052602260045260246000fd5b600060028204905060018216806200035e57607f821691505b6020821081141562000375576200037462000316565b5b50919050565b61488a806200038b6000396000f3fe608060405234801561001057600080fd5b50600436106101ce5760003560e01c80636b20c45411610104578063bd85b039116100a2578063d547741f11610071578063d547741f14610541578063e985e9c51461055d578063f242432a1461058d578063f5298aca146105a9576101ce565b8063bd85b039146104b9578063d1a377dc146104e9578063d351cfdc14610507578063d539139314610523576101ce565b806391d14854116100de57806391d14854146104335780639cc8dd8214610463578063a217fddf1461047f578063a22cb4651461049d576101ce565b80636b20c454146103dd5780637f345710146103f95780638a71278614610417576101ce565b80632f2ff15d116101715780634e1273f41161014b5780634e1273f4146103415780634f558e791461037157806359b3ed9d146103a15780635ebd4bf4146103bf576101ce565b80632f2ff15d146102eb57806336568abe146103075780633c1a302514610323576101ce565b80631e819f6f116101ad5780631e819f6f14610263578063248a9ca31461028157806329165666146102b15780632eb2c2d6146102cf576101ce565b8062fdd58e146101d357806301ffc9a7146102035780630e89341c14610233575b600080fd5b6101ed60048036038101906101e89190612e0d565b6105c5565b6040516101fa9190612e5c565b60405180910390f35b61021d60048036038101906102189190612ecf565b61068e565b60405161022a9190612f17565b60405180910390f35b61024d60048036038101906102489190612f32565b6106a0565b60405161025a9190612ff8565b60405180910390f35b61026b6106b2565b6040516102789190612e5c565b60405180910390f35b61029b60048036038101906102969190613050565b6106b7565b6040516102a8919061308c565b60405180910390f35b6102b96106d7565b6040516102c69190612e5c565b60405180910390f35b6102e960048036038101906102e491906132a4565b6106dc565b005b61030560048036038101906103009190613373565b61077d565b005b610321600480360381019061031c9190613373565b61079e565b005b61032b610821565b6040516103389190612e5c565b60405180910390f35b61035b60048036038101906103569190613476565b610826565b60405161036891906135ac565b60405180910390f35b61038b60048036038101906103869190612f32565b61093f565b6040516103989190612f17565b60405180910390f35b6103a9610953565b6040516103b69190612e5c565b60405180910390f35b6103c7610958565b6040516103d49190612e5c565b60405180910390f35b6103f760048036038101906103f291906135ce565b61095d565b005b6104016109fa565b60405161040e919061308c565b60405180910390f35b610431600480360381019061042c91906136fa565b610a1e565b005b61044d60048036038101906104489190613373565b610a73565b60405161045a9190612f17565b60405180910390f35b61047d60048036038101906104789190613769565b610ade565b005b610487610b28565b604051610494919061308c565b60405180910390f35b6104b760048036038101906104b291906137d5565b610b2f565b005b6104d360048036038101906104ce9190612f32565b610b45565b6040516104e09190612e5c565b60405180910390f35b6104f1610b62565b6040516104fe9190612e5c565b60405180910390f35b610521600480360381019061051c9190613815565b610b67565b005b61052b610bb1565b604051610538919061308c565b60405180910390f35b61055b60048036038101906105569190613373565b610bd5565b005b6105776004803603810190610572919061388d565b610bf6565b6040516105849190612f17565b60405180910390f35b6105a760048036038101906105a291906138cd565b610c8a565b005b6105c360048036038101906105be9190613964565b610d2b565b005b60008073ffffffffffffffffffffffffffffffffffffffff168373ffffffffffffffffffffffffffffffffffffffff161415610636576040517f08c379a000000000000000000000000000000000000000000000000000000000815260040161062d90613a29565b60405180910390fd5b60008083815260200190815260200160002060008473ffffffffffffffffffffffffffffffffffffffff1673ffffffffffffffffffffffffffffffffffffffff16815260200190815260200160002054905092915050565b600061069982610dc8565b9050919050565b60606106ab82610e42565b9050919050565b600281565b600060056000838152602001908152602001600020600101549050919050565b600681565b6106e4610f27565b73ffffffffffffffffffffffffffffffffffffffff168573ffffffffffffffffffffffffffffffffffffffff16148061072a575061072985610724610f27565b610bf6565b5b610769576040517f08c379a000000000000000000000000000000000000000000000000000000000815260040161076090613abb565b60405180910390fd5b6107768585858585610f2f565b5050505050565b610786826106b7565b61078f81611251565b6107998383611265565b505050565b6107a6610f27565b73ffffffffffffffffffffffffffffffffffffffff168173ffffffffffffffffffffffffffffffffffffffff1614610813576040517f08c379a000000000000000000000000000000000000000000000000000000000815260040161080a90613b4d565b60405180910390fd5b61081d8282611346565b5050565b600581565b6060815183511461086c576040517f08c379a000000000000000000000000000000000000000000000000000000000815260040161086390613bdf565b60405180910390fd5b6000835167ffffffffffffffff811115610889576108886130ac565b5b6040519080825280602002602001820160405280156108b75781602001602082028036833780820191505090505b50905060005b8451811015610934576109048582815181106108dc576108db613bff565b5b60200260200101518583815181106108f7576108f6613bff565b5b60200260200101516105c5565b82828151811061091757610916613bff565b5b6020026020010181815250508061092d90613c5d565b90506108bd565b508091505092915050565b60008061094b83610b45565b119050919050565b600481565b600381565b610965610f27565b73ffffffffffffffffffffffffffffffffffffffff168373ffffffffffffffffffffffffffffffffffffffff1614806109ab57506109aa836109a5610f27565b610bf6565b5b6109ea576040517f08c379a00000000000000000000000000000000000000000000000000000000081526004016109e190613abb565b60405180910390fd5b6109f5838383611428565b505050565b7f7804d923f43a17d325d77e781528e0793b2edd9890ab45fc64efd7b4b427744c81565b7f9f2df0fed2c77648de5860a4cc508cd0818c85b8b8a1ab4ceeef8d981c8956a6610a4881611251565b610a5284836116f7565b610a6d33858560405180602001604052806000815250611763565b50505050565b60006005600084815260200190815260200160002060000160008373ffffffffffffffffffffffffffffffffffffffff1673ffffffffffffffffffffffffffffffffffffffff16815260200190815260200160002060009054906101000a900460ff16905092915050565b7f9f2df0fed2c77648de5860a4cc508cd0818c85b8b8a1ab4ceeef8d981c8956a6610b0881611251565b610b2333848460405180602001604052806000815250611763565b505050565b6000801b81565b610b41610b3a610f27565b8383611914565b5050565b600060066000838152602001908152602001600020549050919050565b600181565b7f9f2df0fed2c77648de5860a4cc508cd0818c85b8b8a1ab4ceeef8d981c8956a6610b9181611251565b610bac33848460405180602001604052806000815250611a81565b505050565b7f9f2df0fed2c77648de5860a4cc508cd0818c85b8b8a1ab4ceeef8d981c8956a681565b610bde826106b7565b610be781611251565b610bf18383611346565b505050565b6000600160008473ffffffffffffffffffffffffffffffffffffffff1673ffffffffffffffffffffffffffffffffffffffff16815260200190815260200160002060008373ffffffffffffffffffffffffffffffffffffffff1673ffffffffffffffffffffffffffffffffffffffff16815260200190815260200160002060009054906101000a900460ff16905092915050565b610c92610f27565b73ffffffffffffffffffffffffffffffffffffffff168573ffffffffffffffffffffffffffffffffffffffff161480610cd85750610cd785610cd2610f27565b610bf6565b5b610d17576040517f08c379a0000000000000000000000000000000000000000000000000000000008152600401610d0e90613abb565b60405180910390fd5b610d248585858585611cae565b5050505050565b610d33610f27565b73ffffffffffffffffffffffffffffffffffffffff168373ffffffffffffffffffffffffffffffffffffffff161480610d795750610d7883610d73610f27565b610bf6565b5b610db8576040517f08c379a0000000000000000000000000000000000000000000000000000000008152600401610daf90613abb565b60405180910390fd5b610dc3838383611f4a565b505050565b60007f7965db0b000000000000000000000000000000000000000000000000000000007bffffffffffffffffffffffffffffffffffffffffffffffffffffffff1916827bffffffffffffffffffffffffffffffffffffffffffffffffffffffff19161480610e3b5750610e3a82612191565b5b9050919050565b60606000600460008481526020019081526020016000208054610e6490613cd5565b80601f0160208091040260200160405190810160405280929190818152602001828054610e9090613cd5565b8015610edd5780601f10610eb257610100808354040283529160200191610edd565b820191906000526020600020905b815481529060010190602001808311610ec057829003601f168201915b505050505090506000815111610efb57610ef683612273565b610f1f565b600381604051602001610f0f929190613dd7565b6040516020818303038152906040525b915050919050565b600033905090565b8151835114610f73576040517f08c379a0000000000000000000000000000000000000000000000000000000008152600401610f6a90613e6d565b60405180910390fd5b600073ffffffffffffffffffffffffffffffffffffffff168473ffffffffffffffffffffffffffffffffffffffff161415610fe3576040517f08c379a0000000000000000000000000000000000000000000000000000000008152600401610fda90613eff565b60405180910390fd5b6000610fed610f27565b9050610ffd818787878787612307565b60005b84518110156111ae57600085828151811061101e5761101d613bff565b5b60200260200101519050600085838151811061103d5761103c613bff565b5b60200260200101519050600080600084815260200190815260200160002060008b73ffffffffffffffffffffffffffffffffffffffff1673ffffffffffffffffffffffffffffffffffffffff168152602001908152602001600020549050818110156110de576040517f08c379a00000000000000000000000000000000000000000000000000000000081526004016110d590613f91565b60405180910390fd5b81810360008085815260200190815260200160002060008c73ffffffffffffffffffffffffffffffffffffffff1673ffffffffffffffffffffffffffffffffffffffff168152602001908152602001600020819055508160008085815260200190815260200160002060008b73ffffffffffffffffffffffffffffffffffffffff1673ffffffffffffffffffffffffffffffffffffffff16815260200190815260200160002060008282546111939190613fb1565b92505081905550505050806111a790613c5d565b9050611000565b508473ffffffffffffffffffffffffffffffffffffffff168673ffffffffffffffffffffffffffffffffffffffff168273ffffffffffffffffffffffffffffffffffffffff167f4a39dc06d4c0dbc64b70af90fd698a233a518aa5d07e595d983b8c0526c8f7fb8787604051611225929190614007565b60405180910390a461123b81878787878761231d565b611249818787878787612325565b505050505050565b6112628161125d610f27565b61250c565b50565b61126f8282610a73565b6113425760016005600084815260200190815260200160002060000160008373ffffffffffffffffffffffffffffffffffffffff1673ffffffffffffffffffffffffffffffffffffffff16815260200190815260200160002060006101000a81548160ff0219169083151502179055506112e7610f27565b73ffffffffffffffffffffffffffffffffffffffff168173ffffffffffffffffffffffffffffffffffffffff16837f2f8788117e7eff1d82e926ec794901d17c78024a50270940304540a733656f0d60405160405180910390a45b5050565b6113508282610a73565b156114245760006005600084815260200190815260200160002060000160008373ffffffffffffffffffffffffffffffffffffffff1673ffffffffffffffffffffffffffffffffffffffff16815260200190815260200160002060006101000a81548160ff0219169083151502179055506113c9610f27565b73ffffffffffffffffffffffffffffffffffffffff168173ffffffffffffffffffffffffffffffffffffffff16837ff6391f5c32d9c69d2a47ea670b442974b53935d1edc7fd64eb21e047a839171b60405160405180910390a45b5050565b600073ffffffffffffffffffffffffffffffffffffffff168373ffffffffffffffffffffffffffffffffffffffff161415611498576040517f08c379a000000000000000000000000000000000000000000000000000000000815260040161148f906140b0565b60405180910390fd5b80518251146114dc576040517f08c379a00000000000000000000000000000000000000000000000000000000081526004016114d390613e6d565b60405180910390fd5b60006114e6610f27565b905061150681856000868660405180602001604052806000815250612307565b60005b835181101561165357600084828151811061152757611526613bff565b5b60200260200101519050600084838151811061154657611545613bff565b5b60200260200101519050600080600084815260200190815260200160002060008973ffffffffffffffffffffffffffffffffffffffff1673ffffffffffffffffffffffffffffffffffffffff168152602001908152602001600020549050818110156115e7576040517f08c379a00000000000000000000000000000000000000000000000000000000081526004016115de90614142565b60405180910390fd5b81810360008085815260200190815260200160002060008a73ffffffffffffffffffffffffffffffffffffffff1673ffffffffffffffffffffffffffffffffffffffff16815260200190815260200160002081905550505050808061164b90613c5d565b915050611509565b50600073ffffffffffffffffffffffffffffffffffffffff168473ffffffffffffffffffffffffffffffffffffffff168273ffffffffffffffffffffffffffffffffffffffff167f4a39dc06d4c0dbc64b70af90fd698a233a518aa5d07e595d983b8c0526c8f7fb86866040516116cb929190614007565b60405180910390a46116f18185600086866040518060200160405280600081525061231d565b50505050565b8060046000848152602001908152602001600020908051906020019061171e929190612cc2565b50817f6bb7ff708619ba0610cba295a58592e0451dee2622938c8755667688daf3529b61174a846106a0565b6040516117579190612ff8565b60405180910390a25050565b600073ffffffffffffffffffffffffffffffffffffffff168473ffffffffffffffffffffffffffffffffffffffff1614156117d3576040517f08c379a00000000000000000000000000000000000000000000000000000000081526004016117ca906141d4565b60405180910390fd5b60006117dd610f27565b905060006117ea85612591565b905060006117f785612591565b905061180883600089858589612307565b8460008088815260200190815260200160002060008973ffffffffffffffffffffffffffffffffffffffff1673ffffffffffffffffffffffffffffffffffffffff16815260200190815260200160002060008282546118679190613fb1565b925050819055508673ffffffffffffffffffffffffffffffffffffffff16600073ffffffffffffffffffffffffffffffffffffffff168473ffffffffffffffffffffffffffffffffffffffff167fc3d58168c5ae7397731d063d5bbf3d657854427343f4c083240f7aacaa2d0f6289896040516118e59291906141f4565b60405180910390a46118fc8360008985858961231d565b61190b8360008989898961260b565b50505050505050565b8173ffffffffffffffffffffffffffffffffffffffff168373ffffffffffffffffffffffffffffffffffffffff161415611983576040517f08c379a000000000000000000000000000000000000000000000000000000000815260040161197a9061428f565b60405180910390fd5b80600160008573ffffffffffffffffffffffffffffffffffffffff1673ffffffffffffffffffffffffffffffffffffffff16815260200190815260200160002060008473ffffffffffffffffffffffffffffffffffffffff1673ffffffffffffffffffffffffffffffffffffffff16815260200190815260200160002060006101000a81548160ff0219169083151502179055508173ffffffffffffffffffffffffffffffffffffffff168373ffffffffffffffffffffffffffffffffffffffff167f17307eab39ab6107e8899845ad3d59bd9653f200f220920489ca2b5937696c3183604051611a749190612f17565b60405180910390a3505050565b600073ffffffffffffffffffffffffffffffffffffffff168473ffffffffffffffffffffffffffffffffffffffff161415611af1576040517f08c379a0000000000000000000000000000000000000000000000000000000008152600401611ae8906141d4565b60405180910390fd5b8151835114611b35576040517f08c379a0000000000000000000000000000000000000000000000000000000008152600401611b2c90613e6d565b60405180910390fd5b6000611b3f610f27565b9050611b5081600087878787612307565b60005b8451811015611c0957838181518110611b6f57611b6e613bff565b5b6020026020010151600080878481518110611b8d57611b8c613bff565b5b6020026020010151815260200190815260200160002060008873ffffffffffffffffffffffffffffffffffffffff1673ffffffffffffffffffffffffffffffffffffffff1681526020019081526020016000206000828254611bef9190613fb1565b925050819055508080611c0190613c5d565b915050611b53565b508473ffffffffffffffffffffffffffffffffffffffff16600073ffffffffffffffffffffffffffffffffffffffff168273ffffffffffffffffffffffffffffffffffffffff167f4a39dc06d4c0dbc64b70af90fd698a233a518aa5d07e595d983b8c0526c8f7fb8787604051611c81929190614007565b60405180910390a4611c988160008787878761231d565b611ca781600087878787612325565b5050505050565b600073ffffffffffffffffffffffffffffffffffffffff168473ffffffffffffffffffffffffffffffffffffffff161415611d1e576040517f08c379a0000000000000000000000000000000000000000000000000000000008152600401611d1590613eff565b60405180910390fd5b6000611d28610f27565b90506000611d3585612591565b90506000611d4285612591565b9050611d52838989858589612307565b600080600088815260200190815260200160002060008a73ffffffffffffffffffffffffffffffffffffffff1673ffffffffffffffffffffffffffffffffffffffff16815260200190815260200160002054905085811015611de9576040517f08c379a0000000000000000000000000000000000000000000000000000000008152600401611de090613f91565b60405180910390fd5b85810360008089815260200190815260200160002060008b73ffffffffffffffffffffffffffffffffffffffff1673ffffffffffffffffffffffffffffffffffffffff168152602001908152602001600020819055508560008089815260200190815260200160002060008a73ffffffffffffffffffffffffffffffffffffffff1673ffffffffffffffffffffffffffffffffffffffff1681526020019081526020016000206000828254611e9e9190613fb1565b925050819055508773ffffffffffffffffffffffffffffffffffffffff168973ffffffffffffffffffffffffffffffffffffffff168573ffffffffffffffffffffffffffffffffffffffff167fc3d58168c5ae7397731d063d5bbf3d657854427343f4c083240f7aacaa2d0f628a8a604051611f1b9291906141f4565b60405180910390a4611f31848a8a86868a61231d565b611f3f848a8a8a8a8a61260b565b505050505050505050565b600073ffffffffffffffffffffffffffffffffffffffff168373ffffffffffffffffffffffffffffffffffffffff161415611fba576040517f08c379a0000000000000000000000000000000000000000000000000000000008152600401611fb1906140b0565b60405180910390fd5b6000611fc4610f27565b90506000611fd184612591565b90506000611fde84612591565b9050611ffe83876000858560405180602001604052806000815250612307565b600080600087815260200190815260200160002060008873ffffffffffffffffffffffffffffffffffffffff1673ffffffffffffffffffffffffffffffffffffffff16815260200190815260200160002054905084811015612095576040517f08c379a000000000000000000000000000000000000000000000000000000000815260040161208c90614142565b60405180910390fd5b84810360008088815260200190815260200160002060008973ffffffffffffffffffffffffffffffffffffffff1673ffffffffffffffffffffffffffffffffffffffff16815260200190815260200160002081905550600073ffffffffffffffffffffffffffffffffffffffff168773ffffffffffffffffffffffffffffffffffffffff168573ffffffffffffffffffffffffffffffffffffffff167fc3d58168c5ae7397731d063d5bbf3d657854427343f4c083240f7aacaa2d0f6289896040516121629291906141f4565b60405180910390a46121888488600086866040518060200160405280600081525061231d565b50505050505050565b60007fd9b67a26000000000000000000000000000000000000000000000000000000007bffffffffffffffffffffffffffffffffffffffffffffffffffffffff1916827bffffffffffffffffffffffffffffffffffffffffffffffffffffffff1916148061225c57507f0e89341c000000000000000000000000000000000000000000000000000000007bffffffffffffffffffffffffffffffffffffffffffffffffffffffff1916827bffffffffffffffffffffffffffffffffffffffffffffffffffffffff1916145b8061226c575061226b826127f2565b5b9050919050565b60606002805461228290613cd5565b80601f01602080910402602001604051908101604052809291908181526020018280546122ae90613cd5565b80156122fb5780601f106122d0576101008083540402835291602001916122fb565b820191906000526020600020905b8154815290600101906020018083116122de57829003601f168201915b50505050509050919050565b61231586868686868661285c565b505050505050565b505050505050565b6123448473ffffffffffffffffffffffffffffffffffffffff16612a2e565b15612504578373ffffffffffffffffffffffffffffffffffffffff1663bc197c8187878686866040518663ffffffff1660e01b815260040161238a959493929190614313565b602060405180830381600087803b1580156123a457600080fd5b505af19250505080156123d557506040513d601f19601f820116820180604052508101906123d29190614390565b60015b61247b576123e16143ca565b806308c379a0141561243e57506123f66143ec565b806124015750612440565b806040517f08c379a00000000000000000000000000000000000000000000000000000000081526004016124359190612ff8565b60405180910390fd5b505b6040517f08c379a0000000000000000000000000000000000000000000000000000000008152600401612472906144f4565b60405180910390fd5b63bc197c8160e01b7bffffffffffffffffffffffffffffffffffffffffffffffffffffffff1916817bffffffffffffffffffffffffffffffffffffffffffffffffffffffff191614612502576040517f08c379a00000000000000000000000000000000000000000000000000000000081526004016124f990614586565b60405180910390fd5b505b505050505050565b6125168282610a73565b61258d5761252381612a51565b6125318360001c6020612a7e565b60405160200161254292919061463e565b6040516020818303038152906040526040517f08c379a00000000000000000000000000000000000000000000000000000000081526004016125849190612ff8565b60405180910390fd5b5050565b60606000600167ffffffffffffffff8111156125b0576125af6130ac565b5b6040519080825280602002602001820160405280156125de5781602001602082028036833780820191505090505b50905082816000815181106125f6576125f5613bff565b5b60200260200101818152505080915050919050565b61262a8473ffffffffffffffffffffffffffffffffffffffff16612a2e565b156127ea578373ffffffffffffffffffffffffffffffffffffffff1663f23a6e6187878686866040518663ffffffff1660e01b8152600401612670959493929190614678565b602060405180830381600087803b15801561268a57600080fd5b505af19250505080156126bb57506040513d601f19601f820116820180604052508101906126b89190614390565b60015b612761576126c76143ca565b806308c379a0141561272457506126dc6143ec565b806126e75750612726565b806040517f08c379a000000000000000000000000000000000000000000000000000000000815260040161271b9190612ff8565b60405180910390fd5b505b6040517f08c379a0000000000000000000000000000000000000000000000000000000008152600401612758906144f4565b60405180910390fd5b63f23a6e6160e01b7bffffffffffffffffffffffffffffffffffffffffffffffffffffffff1916817bffffffffffffffffffffffffffffffffffffffffffffffffffffffff1916146127e8576040517f08c379a00000000000000000000000000000000000000000000000000000000081526004016127df90614586565b60405180910390fd5b505b505050505050565b60007f01ffc9a7000000000000000000000000000000000000000000000000000000007bffffffffffffffffffffffffffffffffffffffffffffffffffffffff1916827bffffffffffffffffffffffffffffffffffffffffffffffffffffffff1916149050919050565b61286a868686868686612cba565b600073ffffffffffffffffffffffffffffffffffffffff168573ffffffffffffffffffffffffffffffffffffffff16141561291c5760005b835181101561291a578281815181106128be576128bd613bff565b5b6020026020010151600660008684815181106128dd576128dc613bff565b5b6020026020010151815260200190815260200160002060008282546129029190613fb1565b925050819055508061291390613c5d565b90506128a2565b505b600073ffffffffffffffffffffffffffffffffffffffff168473ffffffffffffffffffffffffffffffffffffffff161415612a265760005b8351811015612a2457600084828151811061297257612971613bff565b5b60200260200101519050600084838151811061299157612990613bff565b5b60200260200101519050600060066000848152602001908152602001600020549050818110156129f6576040517f08c379a00000000000000000000000000000000000000000000000000000000081526004016129ed90614744565b60405180910390fd5b818103600660008581526020019081526020016000208190555050505080612a1d90613c5d565b9050612954565b505b505050505050565b6000808273ffffffffffffffffffffffffffffffffffffffff163b119050919050565b6060612a778273ffffffffffffffffffffffffffffffffffffffff16601460ff16612a7e565b9050919050565b606060006002836002612a919190614764565b612a9b9190613fb1565b67ffffffffffffffff811115612ab457612ab36130ac565b5b6040519080825280601f01601f191660200182016040528015612ae65781602001600182028036833780820191505090505b5090507f300000000000000000000000000000000000000000000000000000000000000081600081518110612b1e57612b1d613bff565b5b60200101907effffffffffffffffffffffffffffffffffffffffffffffffffffffffffffff1916908160001a9053507f780000000000000000000000000000000000000000000000000000000000000081600181518110612b8257612b81613bff565b5b60200101907effffffffffffffffffffffffffffffffffffffffffffffffffffffffffffff1916908160001a90535060006001846002612bc29190614764565b612bcc9190613fb1565b90505b6001811115612c6c577f3031323334353637383961626364656600000000000000000000000000000000600f861660108110612c0e57612c0d613bff565b5b1a60f81b828281518110612c2557612c24613bff565b5b60200101907effffffffffffffffffffffffffffffffffffffffffffffffffffffffffffff1916908160001a905350600485901c945080612c65906147be565b9050612bcf565b5060008414612cb0576040517f08c379a0000000000000000000000000000000000000000000000000000000008152600401612ca790614834565b60405180910390fd5b8091505092915050565b505050505050565b828054612cce90613cd5565b90600052602060002090601f016020900481019282612cf05760008555612d37565b82601f10612d0957805160ff1916838001178555612d37565b82800160010185558215612d37579182015b82811115612d36578251825591602001919060010190612d1b565b5b509050612d449190612d48565b5090565b5b80821115612d61576000816000905550600101612d49565b5090565b6000604051905090565b600080fd5b600080fd5b600073ffffffffffffffffffffffffffffffffffffffff82169050919050565b6000612da482612d79565b9050919050565b612db481612d99565b8114612dbf57600080fd5b50565b600081359050612dd181612dab565b92915050565b6000819050919050565b612dea81612dd7565b8114612df557600080fd5b50565b600081359050612e0781612de1565b92915050565b60008060408385031215612e2457612e23612d6f565b5b6000612e3285828601612dc2565b9250506020612e4385828601612df8565b9150509250929050565b612e5681612dd7565b82525050565b6000602082019050612e716000830184612e4d565b92915050565b60007fffffffff0000000000000000000000000000000000000000000000000000000082169050919050565b612eac81612e77565b8114612eb757600080fd5b50565b600081359050612ec981612ea3565b92915050565b600060208284031215612ee557612ee4612d6f565b5b6000612ef384828501612eba565b91505092915050565b60008115159050919050565b612f1181612efc565b82525050565b6000602082019050612f2c6000830184612f08565b92915050565b600060208284031215612f4857612f47612d6f565b5b6000612f5684828501612df8565b91505092915050565b600081519050919050565b600082825260208201905092915050565b60005b83811015612f99578082015181840152602081019050612f7e565b83811115612fa8576000848401525b50505050565b6000601f19601f8301169050919050565b6000612fca82612f5f565b612fd48185612f6a565b9350612fe4818560208601612f7b565b612fed81612fae565b840191505092915050565b600060208201905081810360008301526130128184612fbf565b905092915050565b6000819050919050565b61302d8161301a565b811461303857600080fd5b50565b60008135905061304a81613024565b92915050565b60006020828403121561306657613065612d6f565b5b60006130748482850161303b565b91505092915050565b6130868161301a565b82525050565b60006020820190506130a1600083018461307d565b92915050565b600080fd5b7f4e487b7100000000000000000000000000000000000000000000000000000000600052604160045260246000fd5b6130e482612fae565b810181811067ffffffffffffffff82111715613103576131026130ac565b5b80604052505050565b6000613116612d65565b905061312282826130db565b919050565b600067ffffffffffffffff821115613142576131416130ac565b5b602082029050602081019050919050565b600080fd5b600061316b61316684613127565b61310c565b9050808382526020820190506020840283018581111561318e5761318d613153565b5b835b818110156131b757806131a38882612df8565b845260208401935050602081019050613190565b5050509392505050565b600082601f8301126131d6576131d56130a7565b5b81356131e6848260208601613158565b91505092915050565b600080fd5b600067ffffffffffffffff82111561320f5761320e6130ac565b5b61321882612fae565b9050602081019050919050565b82818337600083830152505050565b6000613247613242846131f4565b61310c565b905082815260208101848484011115613263576132626131ef565b5b61326e848285613225565b509392505050565b600082601f83011261328b5761328a6130a7565b5b813561329b848260208601613234565b91505092915050565b600080600080600060a086880312156132c0576132bf612d6f565b5b60006132ce88828901612dc2565b95505060206132df88828901612dc2565b945050604086013567ffffffffffffffff811115613300576132ff612d74565b5b61330c888289016131c1565b935050606086013567ffffffffffffffff81111561332d5761332c612d74565b5b613339888289016131c1565b925050608086013567ffffffffffffffff81111561335a57613359612d74565b5b61336688828901613276565b9150509295509295909350565b6000806040838503121561338a57613389612d6f565b5b60006133988582860161303b565b92505060206133a985828601612dc2565b9150509250929050565b600067ffffffffffffffff8211156133ce576133cd6130ac565b5b602082029050602081019050919050565b60006133f26133ed846133b3565b61310c565b9050808382526020820190506020840283018581111561341557613414613153565b5b835b8181101561343e578061342a8882612dc2565b845260208401935050602081019050613417565b5050509392505050565b600082601f83011261345d5761345c6130a7565b5b813561346d8482602086016133df565b91505092915050565b6000806040838503121561348d5761348c612d6f565b5b600083013567ffffffffffffffff8111156134ab576134aa612d74565b5b6134b785828601613448565b925050602083013567ffffffffffffffff8111156134d8576134d7612d74565b5b6134e4858286016131c1565b9150509250929050565b600081519050919050565b600082825260208201905092915050565b6000819050602082019050919050565b61352381612dd7565b82525050565b6000613535838361351a565b60208301905092915050565b6000602082019050919050565b6000613559826134ee565b61356381856134f9565b935061356e8361350a565b8060005b8381101561359f5781516135868882613529565b975061359183613541565b925050600181019050613572565b5085935050505092915050565b600060208201905081810360008301526135c6818461354e565b905092915050565b6000806000606084860312156135e7576135e6612d6f565b5b60006135f586828701612dc2565b935050602084013567ffffffffffffffff81111561361657613615612d74565b5b613622868287016131c1565b925050604084013567ffffffffffffffff81111561364357613642612d74565b5b61364f868287016131c1565b9150509250925092565b600067ffffffffffffffff821115613674576136736130ac565b5b61367d82612fae565b9050602081019050919050565b600061369d61369884613659565b61310c565b9050828152602081018484840111156136b9576136b86131ef565b5b6136c4848285613225565b509392505050565b600082601f8301126136e1576136e06130a7565b5b81356136f184826020860161368a565b91505092915050565b60008060006060848603121561371357613712612d6f565b5b600061372186828701612df8565b935050602061373286828701612df8565b925050604084013567ffffffffffffffff81111561375357613752612d74565b5b61375f868287016136cc565b9150509250925092565b600080604083850312156137805761377f612d6f565b5b600061378e85828601612df8565b925050602061379f85828601612df8565b9150509250929050565b6137b281612efc565b81146137bd57600080fd5b50565b6000813590506137cf816137a9565b92915050565b600080604083850312156137ec576137eb612d6f565b5b60006137fa85828601612dc2565b925050602061380b858286016137c0565b9150509250929050565b6000806040838503121561382c5761382b612d6f565b5b600083013567ffffffffffffffff81111561384a57613849612d74565b5b613856858286016131c1565b925050602083013567ffffffffffffffff81111561387757613876612d74565b5b613883858286016131c1565b9150509250929050565b600080604083850312156138a4576138a3612d6f565b5b60006138b285828601612dc2565b92505060206138c385828601612dc2565b9150509250929050565b600080600080600060a086880312156138e9576138e8612d6f565b5b60006138f788828901612dc2565b955050602061390888828901612dc2565b945050604061391988828901612df8565b935050606061392a88828901612df8565b925050608086013567ffffffffffffffff81111561394b5761394a612d74565b5b61395788828901613276565b9150509295509295909350565b60008060006060848603121561397d5761397c612d6f565b5b600061398b86828701612dc2565b935050602061399c86828701612df8565b92505060406139ad86828701612df8565b9150509250925092565b7f455243313135353a2061646472657373207a65726f206973206e6f742061207660008201527f616c6964206f776e657200000000000000000000000000000000000000000000602082015250565b6000613a13602a83612f6a565b9150613a1e826139b7565b604082019050919050565b60006020820190508181036000830152613a4281613a06565b9050919050565b7f455243313135353a2063616c6c6572206973206e6f7420746f6b656e206f776e60008201527f6572206f7220617070726f766564000000000000000000000000000000000000602082015250565b6000613aa5602e83612f6a565b9150613ab082613a49565b604082019050919050565b60006020820190508181036000830152613ad481613a98565b9050919050565b7f416363657373436f6e74726f6c3a2063616e206f6e6c792072656e6f756e636560008201527f20726f6c657320666f722073656c660000000000000000000000000000000000602082015250565b6000613b37602f83612f6a565b9150613b4282613adb565b604082019050919050565b60006020820190508181036000830152613b6681613b2a565b9050919050565b7f455243313135353a206163636f756e747320616e6420696473206c656e67746860008201527f206d69736d617463680000000000000000000000000000000000000000000000602082015250565b6000613bc9602983612f6a565b9150613bd482613b6d565b604082019050919050565b60006020820190508181036000830152613bf881613bbc565b9050919050565b7f4e487b7100000000000000000000000000000000000000000000000000000000600052603260045260246000fd5b7f4e487b7100000000000000000000000000000000000000000000000000000000600052601160045260246000fd5b6000613c6882612dd7565b91507fffffffffffffffffffffffffffffffffffffffffffffffffffffffffffffffff821415613c9b57613c9a613c2e565b5b600182019050919050565b7f4e487b7100000000000000000000000000000000000000000000000000000000600052602260045260246000fd5b60006002820490506001821680613ced57607f821691505b60208210811415613d0157613d00613ca6565b5b50919050565b600081905092915050565b60008190508160005260206000209050919050565b60008154613d3481613cd5565b613d3e8186613d07565b94506001821660008114613d595760018114613d6a57613d9d565b60ff19831686528186019350613d9d565b613d7385613d12565b60005b83811015613d9557815481890152600182019150602081019050613d76565b838801955050505b50505092915050565b6000613db182612f5f565b613dbb8185613d07565b9350613dcb818560208601612f7b565b80840191505092915050565b6000613de38285613d27565b9150613def8284613da6565b91508190509392505050565b7f455243313135353a2069647320616e6420616d6f756e7473206c656e6774682060008201527f6d69736d61746368000000000000000000000000000000000000000000000000602082015250565b6000613e57602883612f6a565b9150613e6282613dfb565b604082019050919050565b60006020820190508181036000830152613e8681613e4a565b9050919050565b7f455243313135353a207472616e7366657220746f20746865207a65726f20616460008201527f6472657373000000000000000000000000000000000000000000000000000000602082015250565b6000613ee9602583612f6a565b9150613ef482613e8d565b604082019050919050565b60006020820190508181036000830152613f1881613edc565b9050919050565b7f455243313135353a20696e73756666696369656e742062616c616e636520666f60008201527f72207472616e7366657200000000000000000000000000000000000000000000602082015250565b6000613f7b602a83612f6a565b9150613f8682613f1f565b604082019050919050565b60006020820190508181036000830152613faa81613f6e565b9050919050565b6000613fbc82612dd7565b9150613fc783612dd7565b9250827fffffffffffffffffffffffffffffffffffffffffffffffffffffffffffffffff03821115613ffc57613ffb613c2e565b5b828201905092915050565b60006040820190508181036000830152614021818561354e565b90508181036020830152614035818461354e565b90509392505050565b7f455243313135353a206275726e2066726f6d20746865207a65726f206164647260008201527f6573730000000000000000000000000000000000000000000000000000000000602082015250565b600061409a602383612f6a565b91506140a58261403e565b604082019050919050565b600060208201905081810360008301526140c98161408d565b9050919050565b7f455243313135353a206275726e20616d6f756e7420657863656564732062616c60008201527f616e636500000000000000000000000000000000000000000000000000000000602082015250565b600061412c602483612f6a565b9150614137826140d0565b604082019050919050565b6000602082019050818103600083015261415b8161411f565b9050919050565b7f455243313135353a206d696e7420746f20746865207a65726f2061646472657360008201527f7300000000000000000000000000000000000000000000000000000000000000602082015250565b60006141be602183612f6a565b91506141c982614162565b604082019050919050565b600060208201905081810360008301526141ed816141b1565b9050919050565b60006040820190506142096000830185612e4d565b6142166020830184612e4d565b9392505050565b7f455243313135353a2073657474696e6720617070726f76616c2073746174757360008201527f20666f722073656c660000000000000000000000000000000000000000000000602082015250565b6000614279602983612f6a565b91506142848261421d565b604082019050919050565b600060208201905081810360008301526142a88161426c565b9050919050565b6142b881612d99565b82525050565b600081519050919050565b600082825260208201905092915050565b60006142e5826142be565b6142ef81856142c9565b93506142ff818560208601612f7b565b61430881612fae565b840191505092915050565b600060a08201905061432860008301886142af565b61433560208301876142af565b8181036040830152614347818661354e565b9050818103606083015261435b818561354e565b9050818103608083015261436f81846142da565b90509695505050505050565b60008151905061438a81612ea3565b92915050565b6000602082840312156143a6576143a5612d6f565b5b60006143b48482850161437b565b91505092915050565b60008160e01c9050919050565b600060033d11156143e95760046000803e6143e66000516143bd565b90505b90565b600060443d10156143fc5761447f565b614404612d65565b60043d036004823e80513d602482011167ffffffffffffffff8211171561442c57505061447f565b808201805167ffffffffffffffff81111561444a575050505061447f565b80602083010160043d03850181111561446757505050505061447f565b614476826020018501866130db565b82955050505050505b90565b7f455243313135353a207472616e7366657220746f206e6f6e2d4552433131353560008201527f526563656976657220696d706c656d656e746572000000000000000000000000602082015250565b60006144de603483612f6a565b91506144e982614482565b604082019050919050565b6000602082019050818103600083015261450d816144d1565b9050919050565b7f455243313135353a204552433131353552656365697665722072656a6563746560008201527f6420746f6b656e73000000000000000000000000000000000000000000000000602082015250565b6000614570602883612f6a565b915061457b82614514565b604082019050919050565b6000602082019050818103600083015261459f81614563565b9050919050565b7f416363657373436f6e74726f6c3a206163636f756e7420000000000000000000600082015250565b60006145dc601783613d07565b91506145e7826145a6565b601782019050919050565b7f206973206d697373696e6720726f6c6520000000000000000000000000000000600082015250565b6000614628601183613d07565b9150614633826145f2565b601182019050919050565b6000614649826145cf565b91506146558285613da6565b91506146608261461b565b915061466c8284613da6565b91508190509392505050565b600060a08201905061468d60008301886142af565b61469a60208301876142af565b6146a76040830186612e4d565b6146b46060830185612e4d565b81810360808301526146c681846142da565b90509695505050505050565b7f455243313135353a206275726e20616d6f756e74206578636565647320746f7460008201527f616c537570706c79000000000000000000000000000000000000000000000000602082015250565b600061472e602883612f6a565b9150614739826146d2565b604082019050919050565b6000602082019050818103600083015261475d81614721565b9050919050565b600061476f82612dd7565b915061477a83612dd7565b9250817fffffffffffffffffffffffffffffffffffffffffffffffffffffffffffffffff04831182151516156147b3576147b2613c2e565b5b828202905092915050565b60006147c982612dd7565b915060008214156147dd576147dc613c2e565b5b600182039050919050565b7f537472696e67733a20686578206c656e67746820696e73756666696369656e74600082015250565b600061481e602083612f6a565b9150614829826147e8565b602082019050919050565b6000602082019050818103600083015261484d81614811565b905091905056fea2646970667358221220fe92b888ac9b618b516942025ee6bed27dae8fefb43027e7d8c3c604970c9bff64736f6c63430008090033697066733a2f2f62616679626569667772646a37697263787a61716b777a6163647033676b63616d6e686761776d666c6e7968376c636375736434336e69797670752f7b69647d2e6a736f6e",
  "linkReferences": {},
  "deployedLinkReferences": {}
}