{
  "_format": "hh-sol-artifact-1",
  "contractName": "SupplyChainToken",
  "sourceName": "contracts/Token.sol",
  "abi": [
    {
      "inputs": [],
      "stateMutability": "nonpayable",
      "type": "constructor"
    },
    {
      "anonymous": false,
      "inputs": [
        {
          "indexed": true,
          "internalType": "address",
          "name": "account",
          "type": "address"
        },
        {
          "indexed": true,
          "internalType": "address",
          "name": "operator",
          "type": "address"
        },
        {
          "indexed": false,
          "internalType": "bool",
          "name": "approved",
          "type": "bool"
        }
      ],
      "name": "ApprovalForAll",
      "type": "event"
    },
    {
      "anonymous": false,
      "inputs": [
        {
          "indexed": true,
          "internalType": "bytes32",
          "name": "role",
          "type": "bytes32"
        },
        {
          "indexed": true,
          "internalType": "bytes32",
          "name": "previousAdminRole",
          "type": "bytes32"
        },
        {
          "indexed": true,
          "internalType": "bytes32",
          "name": "newAdminRole",
          "type": "bytes32"
        }
      ],
      "name": "RoleAdminChanged",
      "type": "event"
    },
    {
      "anonymous": false,
      "inputs": [
        {
          "indexed": true,
          "internalType": "bytes32",
          "name": "role",
          "type": "bytes32"
        },
        {
          "indexed": true,
          "internalType": "address",
          "name": "account",
          "type": "address"
        },
        {
          "indexed": true,
          "internalType": "address",
          "name": "sender",
          "type": "address"
        }
      ],
      "name": "RoleGranted",
      "type": "event"
    },
    {
      "anonymous": false,
      "inputs": [
        {
          "indexed": true,
          "internalType": "bytes32",
          "name": "role",
          "type": "bytes32"
        },
        {
          "indexed": true,
          "internalType": "address",
          "name": "account",
          "type": "address"
        },
        {
          "indexed": true,
          "internalType": "address",
          "name": "sender",
          "type": "address"
        }
      ],
      "name": "RoleRevoked",
      "type": "event"
    },
    {
      "anonymous": false,
      "inputs": [
        {
          "indexed": true,
          "internalType": "address",
          "name": "operator",
          "type": "address"
        },
        {
          "indexed": true,
          "internalType": "address",
          "name": "from",
          "type": "address"
        },
        {
          "indexed": true,
          "internalType": "address",
          "name": "to",
          "type": "address"
        },
        {
          "indexed": false,
          "internalType": "uint256[]",
          "name": "ids",
          "type": "uint256[]"
        },
        {
          "indexed": false,
          "internalType": "uint256[]",
          "name": "values",
          "type": "uint256[]"
        }
      ],
      "name": "TransferBatch",
      "type": "event"
    },
    {
      "anonymous": false,
      "inputs": [
        {
          "indexed": true,
          "internalType": "address",
          "name": "operator",
          "type": "address"
        },
        {
          "indexed": true,
          "internalType": "address",
          "name": "from",
          "type": "address"
        },
        {
          "indexed": true,
          "internalType": "address",
          "name": "to",
          "type": "address"
        },
        {
          "indexed": false,
          "internalType": "uint256",
          "name": "id",
          "type": "uint256"
        },
        {
          "indexed": false,
          "internalType": "uint256",
          "name": "value",
          "type": "uint256"
        }
      ],
      "name": "TransferSingle",
      "type": "event"
    },
    {
      "anonymous": false,
      "inputs": [
        {
          "indexed": false,
          "internalType": "string",
          "name": "value",
          "type": "string"
        },
        {
          "indexed": true,
          "internalType": "uint256",
          "name": "id",
          "type": "uint256"
        }
      ],
      "name": "URI",
      "type": "event"
    },
    {
      "inputs": [],
      "name": "DEFAULT_ADMIN_ROLE",
      "outputs": [
        {
          "internalType": "bytes32",
          "name": "",
          "type": "bytes32"
        }
      ],
      "stateMutability": "view",
      "type": "function"
    },
    {
      "inputs": [],
      "name": "MINTER_ROLE",
      "outputs": [
        {
          "internalType": "bytes32",
          "name": "",
          "type": "bytes32"
        }
      ],
      "stateMutability": "view",
      "type": "function"
    },
    {
      "inputs": [],
      "name": "URI_SETTER_ROLE",
      "outputs": [
        {
          "internalType": "bytes32",
          "name": "",
          "type": "bytes32"
        }
      ],
      "stateMutability": "view",
      "type": "function"
    },
    {
      "inputs": [
        {
          "internalType": "address",
          "name": "account",
          "type": "address"
        },
        {
          "internalType": "uint256",
          "name": "id",
          "type": "uint256"
        }
      ],
      "name": "balanceOf",
      "outputs": [
        {
          "internalType": "uint256",
          "name": "",
          "type": "uint256"
        }
      ],
      "stateMutability": "view",
      "type": "function"
    },
    {
      "inputs": [
        {
          "internalType": "address[]",
          "name": "accounts",
          "type": "address[]"
        },
        {
          "internalType": "uint256[]",
          "name": "ids",
          "type": "uint256[]"
        }
      ],
      "name": "balanceOfBatch",
      "outputs": [
        {
          "internalType": "uint256[]",
          "name": "",
          "type": "uint256[]"
        }
      ],
      "stateMutability": "view",
      "type": "function"
    },
    {
      "inputs": [
        {
          "internalType": "address",
          "name": "account",
          "type": "address"
        },
        {
          "internalType": "uint256",
          "name": "id",
          "type": "uint256"
        },
        {
          "internalType": "uint256",
          "name": "value",
          "type": "uint256"
        }
      ],
      "name": "burn",
      "outputs": [],
      "stateMutability": "nonpayable",
      "type": "function"
    },
    {
      "inputs": [
        {
          "internalType": "address",
          "name": "account",
          "type": "address"
        },
        {
          "internalType": "uint256[]",
          "name": "ids",
          "type": "uint256[]"
        },
        {
          "internalType": "uint256[]",
          "name": "values",
          "type": "uint256[]"
        }
      ],
      "name": "burnBatch",
      "outputs": [],
      "stateMutability": "nonpayable",
      "type": "function"
    },
    {
      "inputs": [
        {
          "internalType": "uint256[]",
          "name": "idsToBurn",
          "type": "uint256[]"
        },
        {
          "internalType": "uint256[]",
          "name": "amountsToBurn",
          "type": "uint256[]"
        },
        {
          "internalType": "string",
          "name": "token_URI",
          "type": "string"
        },
        {
          "internalType": "uint256",
          "name": "ammountToMint",
          "type": "uint256"
        }
      ],
      "name": "createSemiProduct",
      "outputs": [],
      "stateMutability": "nonpayable",
      "type": "function"
    },
    {
      "inputs": [
        {
          "internalType": "uint256",
          "name": "id",
          "type": "uint256"
        }
      ],
      "name": "exists",
      "outputs": [
        {
          "internalType": "bool",
          "name": "",
          "type": "bool"
        }
      ],
      "stateMutability": "view",
      "type": "function"
    },
    {
      "inputs": [
        {
          "internalType": "bytes32",
          "name": "role",
          "type": "bytes32"
        }
      ],
      "name": "getRoleAdmin",
      "outputs": [
        {
          "internalType": "bytes32",
          "name": "",
          "type": "bytes32"
        }
      ],
      "stateMutability": "view",
      "type": "function"
    },
    {
      "inputs": [
        {
          "internalType": "bytes32",
          "name": "role",
          "type": "bytes32"
        },
        {
          "internalType": "address",
          "name": "account",
          "type": "address"
        }
      ],
      "name": "grantRole",
      "outputs": [],
      "stateMutability": "nonpayable",
      "type": "function"
    },
    {
      "inputs": [
        {
          "internalType": "bytes32",
          "name": "role",
          "type": "bytes32"
        },
        {
          "internalType": "address",
          "name": "account",
          "type": "address"
        }
      ],
      "name": "hasRole",
      "outputs": [
        {
          "internalType": "bool",
          "name": "",
          "type": "bool"
        }
      ],
      "stateMutability": "view",
      "type": "function"
    },
    {
      "inputs": [
        {
          "internalType": "address",
          "name": "account",
          "type": "address"
        },
        {
          "internalType": "address",
          "name": "operator",
          "type": "address"
        }
      ],
      "name": "isApprovedForAll",
      "outputs": [
        {
          "internalType": "bool",
          "name": "",
          "type": "bool"
        }
      ],
      "stateMutability": "view",
      "type": "function"
    },
    {
      "inputs": [
        {
          "internalType": "uint256[]",
          "name": "ids",
          "type": "uint256[]"
        },
        {
          "internalType": "uint256[]",
          "name": "amounts",
          "type": "uint256[]"
        }
      ],
      "name": "mintBatch",
      "outputs": [],
      "stateMutability": "nonpayable",
      "type": "function"
    },
    {
      "inputs": [
        {
          "internalType": "uint256",
          "name": "amount",
          "type": "uint256"
        },
        {
          "internalType": "string",
          "name": "tokenURI",
          "type": "string"
        }
      ],
      "name": "mint_Assets",
      "outputs": [],
      "stateMutability": "nonpayable",
      "type": "function"
    },
    {
      "inputs": [
        {
          "internalType": "uint256",
          "name": "id",
          "type": "uint256"
        },
        {
          "internalType": "uint256",
          "name": "amount",
          "type": "uint256"
        }
      ],
      "name": "normal_mint",
      "outputs": [],
      "stateMutability": "nonpayable",
      "type": "function"
    },
    {
      "inputs": [
        {
          "internalType": "bytes32",
          "name": "role",
          "type": "bytes32"
        },
        {
          "internalType": "address",
          "name": "account",
          "type": "address"
        }
      ],
      "name": "renounceRole",
      "outputs": [],
      "stateMutability": "nonpayable",
      "type": "function"
    },
    {
      "inputs": [
        {
          "internalType": "bytes32",
          "name": "role",
          "type": "bytes32"
        },
        {
          "internalType": "address",
          "name": "account",
          "type": "address"
        }
      ],
      "name": "revokeRole",
      "outputs": [],
      "stateMutability": "nonpayable",
      "type": "function"
    },
    {
      "inputs": [
        {
          "internalType": "address",
          "name": "from",
          "type": "address"
        },
        {
          "internalType": "address",
          "name": "to",
          "type": "address"
        },
        {
          "internalType": "uint256[]",
          "name": "ids",
          "type": "uint256[]"
        },
        {
          "internalType": "uint256[]",
          "name": "amounts",
          "type": "uint256[]"
        },
        {
          "internalType": "bytes",
          "name": "data",
          "type": "bytes"
        }
      ],
      "name": "safeBatchTransferFrom",
      "outputs": [],
      "stateMutability": "nonpayable",
      "type": "function"
    },
    {
      "inputs": [
        {
          "internalType": "address",
          "name": "from",
          "type": "address"
        },
        {
          "internalType": "address",
          "name": "to",
          "type": "address"
        },
        {
          "internalType": "uint256",
          "name": "id",
          "type": "uint256"
        },
        {
          "internalType": "uint256",
          "name": "amount",
          "type": "uint256"
        },
        {
          "internalType": "bytes",
          "name": "data",
          "type": "bytes"
        }
      ],
      "name": "safeTransferFrom",
      "outputs": [],
      "stateMutability": "nonpayable",
      "type": "function"
    },
    {
      "inputs": [
        {
          "internalType": "address",
          "name": "operator",
          "type": "address"
        },
        {
          "internalType": "bool",
          "name": "approved",
          "type": "bool"
        }
      ],
      "name": "setApprovalForAll",
      "outputs": [],
      "stateMutability": "nonpayable",
      "type": "function"
    },
    {
      "inputs": [
        {
          "internalType": "bytes4",
          "name": "interfaceId",
          "type": "bytes4"
        }
      ],
      "name": "supportsInterface",
      "outputs": [
        {
          "internalType": "bool",
          "name": "",
          "type": "bool"
        }
      ],
      "stateMutability": "view",
      "type": "function"
    },
    {
      "inputs": [],
      "name": "token_id",
      "outputs": [
        {
          "internalType": "uint256",
          "name": "",
          "type": "uint256"
        }
      ],
      "stateMutability": "view",
      "type": "function"
    },
    {
      "inputs": [
        {
          "internalType": "uint256",
          "name": "id",
          "type": "uint256"
        }
      ],
      "name": "totalSupply",
      "outputs": [
        {
          "internalType": "uint256",
          "name": "",
          "type": "uint256"
        }
      ],
      "stateMutability": "view",
      "type": "function"
    },
    {
      "inputs": [
        {
          "internalType": "uint256",
          "name": "tokenId",
          "type": "uint256"
        }
      ],
      "name": "uri",
      "outputs": [
        {
          "internalType": "string",
          "name": "",
          "type": "string"
        }
      ],
      "stateMutability": "view",
      "type": "function"
    },
    {
      "inputs": [
        {
          "internalType": "uint256",
          "name": "id",
          "type": "uint256"
        },
        {
          "internalType": "uint256",
          "name": "amount",
          "type": "uint256"
        },
        {
          "internalType": "string",
          "name": "tokenURI",
          "type": "string"
        }
      ],
      "name": "uri_set_mint",
      "outputs": [],
      "stateMutability": "nonpayable",
      "type": "function"
    }
  ],
  "bytecode": "0x608060405260405180602001604052806000815250600390805190602001906200002b9291906200026b565b5060016007553480156200003e57600080fd5b506040518060800160405280604c815260200162004d3c604c91396200006a81620000ea60201b60201c565b50620000806000801b336200010660201b60201c565b620000b27f7804d923f43a17d325d77e781528e0793b2edd9890ab45fc64efd7b4b427744c336200010660201b60201c565b620000e47f9f2df0fed2c77648de5860a4cc508cd0818c85b8b8a1ab4ceeef8d981c8956a6336200010660201b60201c565b62000380565b8060029080519060200190620001029291906200026b565b5050565b620001188282620001f860201b60201c565b620001f45760016005600084815260200190815260200160002060000160008373ffffffffffffffffffffffffffffffffffffffff1673ffffffffffffffffffffffffffffffffffffffff16815260200190815260200160002060006101000a81548160ff021916908315150217905550620001996200026360201b60201c565b73ffffffffffffffffffffffffffffffffffffffff168173ffffffffffffffffffffffffffffffffffffffff16837f2f8788117e7eff1d82e926ec794901d17c78024a50270940304540a733656f0d60405160405180910390a45b5050565b60006005600084815260200190815260200160002060000160008373ffffffffffffffffffffffffffffffffffffffff1673ffffffffffffffffffffffffffffffffffffffff16815260200190815260200160002060009054906101000a900460ff16905092915050565b600033905090565b82805462000279906200034a565b90600052602060002090601f0160209004810192826200029d5760008555620002e9565b82601f10620002b857805160ff1916838001178555620002e9565b82800160010185558215620002e9579182015b82811115620002e8578251825591602001919060010190620002cb565b5b509050620002f89190620002fc565b5090565b5b8082111562000317576000816000905550600101620002fd565b5090565b7f4e487b7100000000000000000000000000000000000000000000000000000000600052602260045260246000fd5b600060028204905060018216806200036357607f821691505b602082108114156200037a57620003796200031b565b5b50919050565b6149ac80620003906000396000f3fe608060405234801561001057600080fd5b506004361061018d5760003560e01c80638a712786116100de578063d351cfdc11610097578063d566813111610071578063d5668131146104a0578063e985e9c5146104be578063f242432a146104ee578063f5298aca1461050a5761018d565b8063d351cfdc1461044a578063d539139314610466578063d547741f146104845761018d565b80638a7127861461037857806391d14854146103945780639cc8dd82146103c4578063a217fddf146103e0578063a22cb465146103fe578063bd85b0391461041a5761018d565b80632f2ff15d1161014b5780634f558e79116101255780634f558e79146102f25780635313790d146103225780636b20c4541461033e5780637f3457101461035a5761018d565b80632f2ff15d1461028a57806336568abe146102a65780634e1273f4146102c25761018d565b8062fdd58e1461019257806301ffc9a7146101c25780630e89341c146101f25780632119e49614610222578063248a9ca31461023e5780632eb2c2d61461026e575b600080fd5b6101ac60048036038101906101a79190612e18565b610526565b6040516101b99190612e67565b60405180910390f35b6101dc60048036038101906101d79190612eda565b6105ef565b6040516101e99190612f22565b60405180910390f35b61020c60048036038101906102079190612f3d565b610601565b6040516102199190613003565b60405180910390f35b61023c60048036038101906102379190613222565b610613565b005b61025860048036038101906102539190613313565b610665565b604051610265919061334f565b60405180910390f35b6102886004803603810190610283919061340b565b610685565b005b6102a4600480360381019061029f91906134da565b610726565b005b6102c060048036038101906102bb91906134da565b610747565b005b6102dc60048036038101906102d791906135dd565b6107ca565b6040516102e99190613713565b60405180910390f35b61030c60048036038101906103079190612f3d565b6108e3565b6040516103199190612f22565b60405180910390f35b61033c60048036038101906103379190613735565b6108f7565b005b61035860048036038101906103539190613791565b610967565b005b610362610a04565b60405161036f919061334f565b60405180910390f35b610392600480360381019061038d919061381c565b610a28565b005b6103ae60048036038101906103a991906134da565b610a7d565b6040516103bb9190612f22565b60405180910390f35b6103de60048036038101906103d9919061388b565b610ae8565b005b6103e8610b32565b6040516103f5919061334f565b60405180910390f35b610418600480360381019061041391906138f7565b610b39565b005b610434600480360381019061042f9190612f3d565b610b4f565b6040516104419190612e67565b60405180910390f35b610464600480360381019061045f9190613937565b610b6c565b005b61046e610bb6565b60405161047b919061334f565b60405180910390f35b61049e600480360381019061049991906134da565b610bda565b005b6104a8610bfb565b6040516104b59190612e67565b60405180910390f35b6104d860048036038101906104d391906139af565b610c01565b6040516104e59190612f22565b60405180910390f35b610508600480360381019061050391906139ef565b610c95565b005b610524600480360381019061051f9190613a86565b610d36565b005b60008073ffffffffffffffffffffffffffffffffffffffff168373ffffffffffffffffffffffffffffffffffffffff161415610597576040517f08c379a000000000000000000000000000000000000000000000000000000000815260040161058e90613b4b565b60405180910390fd5b60008083815260200190815260200160002060008473ffffffffffffffffffffffffffffffffffffffff1673ffffffffffffffffffffffffffffffffffffffff16815260200190815260200160002054905092915050565b60006105fa82610dd3565b9050919050565b606061060c82610e4d565b9050919050565b61061e338585610f32565b61062a60075483611201565b61064733600754836040518060200160405280600081525061126d565b6007600081548092919061065a90613b9a565b919050555050505050565b600060056000838152602001908152602001600020600101549050919050565b61068d61141e565b73ffffffffffffffffffffffffffffffffffffffff168573ffffffffffffffffffffffffffffffffffffffff1614806106d357506106d2856106cd61141e565b610c01565b5b610712576040517f08c379a000000000000000000000000000000000000000000000000000000000815260040161070990613c55565b60405180910390fd5b61071f8585858585611426565b5050505050565b61072f82610665565b61073881611748565b610742838361175c565b505050565b61074f61141e565b73ffffffffffffffffffffffffffffffffffffffff168173ffffffffffffffffffffffffffffffffffffffff16146107bc576040517f08c379a00000000000000000000000000000000000000000000000000000000081526004016107b390613ce7565b60405180910390fd5b6107c6828261183d565b5050565b60608151835114610810576040517f08c379a000000000000000000000000000000000000000000000000000000000815260040161080790613d79565b60405180910390fd5b6000835167ffffffffffffffff81111561082d5761082c61302a565b5b60405190808252806020026020018201604052801561085b5781602001602082028036833780820191505090505b50905060005b84518110156108d8576108a88582815181106108805761087f613d99565b5b602002602001015185838151811061089b5761089a613d99565b5b6020026020010151610526565b8282815181106108bb576108ba613d99565b5b602002602001018181525050806108d190613b9a565b9050610861565b508091505092915050565b6000806108ef83610b4f565b119050919050565b7f9f2df0fed2c77648de5860a4cc508cd0818c85b8b8a1ab4ceeef8d981c8956a661092181611748565b61092d60075483611201565b61094a33600754856040518060200160405280600081525061126d565b6007600081548092919061095d90613b9a565b9190505550505050565b61096f61141e565b73ffffffffffffffffffffffffffffffffffffffff168373ffffffffffffffffffffffffffffffffffffffff1614806109b557506109b4836109af61141e565b610c01565b5b6109f4576040517f08c379a00000000000000000000000000000000000000000000000000000000081526004016109eb90613c55565b60405180910390fd5b6109ff838383610f32565b505050565b7f7804d923f43a17d325d77e781528e0793b2edd9890ab45fc64efd7b4b427744c81565b7f9f2df0fed2c77648de5860a4cc508cd0818c85b8b8a1ab4ceeef8d981c8956a6610a5281611748565b610a5c8483611201565b610a773385856040518060200160405280600081525061126d565b50505050565b60006005600084815260200190815260200160002060000160008373ffffffffffffffffffffffffffffffffffffffff1673ffffffffffffffffffffffffffffffffffffffff16815260200190815260200160002060009054906101000a900460ff16905092915050565b7f9f2df0fed2c77648de5860a4cc508cd0818c85b8b8a1ab4ceeef8d981c8956a6610b1281611748565b610b2d3384846040518060200160405280600081525061126d565b505050565b6000801b81565b610b4b610b4461141e565b838361191f565b5050565b600060066000838152602001908152602001600020549050919050565b7f9f2df0fed2c77648de5860a4cc508cd0818c85b8b8a1ab4ceeef8d981c8956a6610b9681611748565b610bb133848460405180602001604052806000815250611a8c565b505050565b7f9f2df0fed2c77648de5860a4cc508cd0818c85b8b8a1ab4ceeef8d981c8956a681565b610be382610665565b610bec81611748565b610bf6838361183d565b505050565b60075481565b6000600160008473ffffffffffffffffffffffffffffffffffffffff1673ffffffffffffffffffffffffffffffffffffffff16815260200190815260200160002060008373ffffffffffffffffffffffffffffffffffffffff1673ffffffffffffffffffffffffffffffffffffffff16815260200190815260200160002060009054906101000a900460ff16905092915050565b610c9d61141e565b73ffffffffffffffffffffffffffffffffffffffff168573ffffffffffffffffffffffffffffffffffffffff161480610ce35750610ce285610cdd61141e565b610c01565b5b610d22576040517f08c379a0000000000000000000000000000000000000000000000000000000008152600401610d1990613c55565b60405180910390fd5b610d2f8585858585611cb9565b5050505050565b610d3e61141e565b73ffffffffffffffffffffffffffffffffffffffff168373ffffffffffffffffffffffffffffffffffffffff161480610d845750610d8383610d7e61141e565b610c01565b5b610dc3576040517f08c379a0000000000000000000000000000000000000000000000000000000008152600401610dba90613c55565b60405180910390fd5b610dce838383611f55565b505050565b60007f7965db0b000000000000000000000000000000000000000000000000000000007bffffffffffffffffffffffffffffffffffffffffffffffffffffffff1916827bffffffffffffffffffffffffffffffffffffffffffffffffffffffff19161480610e465750610e458261219c565b5b9050919050565b60606000600460008481526020019081526020016000208054610e6f90613df7565b80601f0160208091040260200160405190810160405280929190818152602001828054610e9b90613df7565b8015610ee85780601f10610ebd57610100808354040283529160200191610ee8565b820191906000526020600020905b815481529060010190602001808311610ecb57829003601f168201915b505050505090506000815111610f0657610f018361227e565b610f2a565b600381604051602001610f1a929190613ef9565b6040516020818303038152906040525b915050919050565b600073ffffffffffffffffffffffffffffffffffffffff168373ffffffffffffffffffffffffffffffffffffffff161415610fa2576040517f08c379a0000000000000000000000000000000000000000000000000000000008152600401610f9990613f8f565b60405180910390fd5b8051825114610fe6576040517f08c379a0000000000000000000000000000000000000000000000000000000008152600401610fdd90614021565b60405180910390fd5b6000610ff061141e565b905061101081856000868660405180602001604052806000815250612312565b60005b835181101561115d57600084828151811061103157611030613d99565b5b6020026020010151905060008483815181106110505761104f613d99565b5b60200260200101519050600080600084815260200190815260200160002060008973ffffffffffffffffffffffffffffffffffffffff1673ffffffffffffffffffffffffffffffffffffffff168152602001908152602001600020549050818110156110f1576040517f08c379a00000000000000000000000000000000000000000000000000000000081526004016110e8906140b3565b60405180910390fd5b81810360008085815260200190815260200160002060008a73ffffffffffffffffffffffffffffffffffffffff1673ffffffffffffffffffffffffffffffffffffffff16815260200190815260200160002081905550505050808061115590613b9a565b915050611013565b50600073ffffffffffffffffffffffffffffffffffffffff168473ffffffffffffffffffffffffffffffffffffffff168273ffffffffffffffffffffffffffffffffffffffff167f4a39dc06d4c0dbc64b70af90fd698a233a518aa5d07e595d983b8c0526c8f7fb86866040516111d59291906140d3565b60405180910390a46111fb81856000868660405180602001604052806000815250612328565b50505050565b80600460008481526020019081526020016000209080519060200190611228929190612ccd565b50817f6bb7ff708619ba0610cba295a58592e0451dee2622938c8755667688daf3529b61125484610601565b6040516112619190613003565b60405180910390a25050565b600073ffffffffffffffffffffffffffffffffffffffff168473ffffffffffffffffffffffffffffffffffffffff1614156112dd576040517f08c379a00000000000000000000000000000000000000000000000000000000081526004016112d49061417c565b60405180910390fd5b60006112e761141e565b905060006112f485612330565b9050600061130185612330565b905061131283600089858589612312565b8460008088815260200190815260200160002060008973ffffffffffffffffffffffffffffffffffffffff1673ffffffffffffffffffffffffffffffffffffffff1681526020019081526020016000206000828254611371919061419c565b925050819055508673ffffffffffffffffffffffffffffffffffffffff16600073ffffffffffffffffffffffffffffffffffffffff168473ffffffffffffffffffffffffffffffffffffffff167fc3d58168c5ae7397731d063d5bbf3d657854427343f4c083240f7aacaa2d0f6289896040516113ef9291906141f2565b60405180910390a461140683600089858589612328565b611415836000898989896123aa565b50505050505050565b600033905090565b815183511461146a576040517f08c379a000000000000000000000000000000000000000000000000000000000815260040161146190614021565b60405180910390fd5b600073ffffffffffffffffffffffffffffffffffffffff168473ffffffffffffffffffffffffffffffffffffffff1614156114da576040517f08c379a00000000000000000000000000000000000000000000000000000000081526004016114d19061428d565b60405180910390fd5b60006114e461141e565b90506114f4818787878787612312565b60005b84518110156116a557600085828151811061151557611514613d99565b5b60200260200101519050600085838151811061153457611533613d99565b5b60200260200101519050600080600084815260200190815260200160002060008b73ffffffffffffffffffffffffffffffffffffffff1673ffffffffffffffffffffffffffffffffffffffff168152602001908152602001600020549050818110156115d5576040517f08c379a00000000000000000000000000000000000000000000000000000000081526004016115cc9061431f565b60405180910390fd5b81810360008085815260200190815260200160002060008c73ffffffffffffffffffffffffffffffffffffffff1673ffffffffffffffffffffffffffffffffffffffff168152602001908152602001600020819055508160008085815260200190815260200160002060008b73ffffffffffffffffffffffffffffffffffffffff1673ffffffffffffffffffffffffffffffffffffffff168152602001908152602001600020600082825461168a919061419c565b925050819055505050508061169e90613b9a565b90506114f7565b508473ffffffffffffffffffffffffffffffffffffffff168673ffffffffffffffffffffffffffffffffffffffff168273ffffffffffffffffffffffffffffffffffffffff167f4a39dc06d4c0dbc64b70af90fd698a233a518aa5d07e595d983b8c0526c8f7fb878760405161171c9291906140d3565b60405180910390a4611732818787878787612328565b611740818787878787612591565b505050505050565b6117598161175461141e565b612778565b50565b6117668282610a7d565b6118395760016005600084815260200190815260200160002060000160008373ffffffffffffffffffffffffffffffffffffffff1673ffffffffffffffffffffffffffffffffffffffff16815260200190815260200160002060006101000a81548160ff0219169083151502179055506117de61141e565b73ffffffffffffffffffffffffffffffffffffffff168173ffffffffffffffffffffffffffffffffffffffff16837f2f8788117e7eff1d82e926ec794901d17c78024a50270940304540a733656f0d60405160405180910390a45b5050565b6118478282610a7d565b1561191b5760006005600084815260200190815260200160002060000160008373ffffffffffffffffffffffffffffffffffffffff1673ffffffffffffffffffffffffffffffffffffffff16815260200190815260200160002060006101000a81548160ff0219169083151502179055506118c061141e565b73ffffffffffffffffffffffffffffffffffffffff168173ffffffffffffffffffffffffffffffffffffffff16837ff6391f5c32d9c69d2a47ea670b442974b53935d1edc7fd64eb21e047a839171b60405160405180910390a45b5050565b8173ffffffffffffffffffffffffffffffffffffffff168373ffffffffffffffffffffffffffffffffffffffff16141561198e576040517f08c379a0000000000000000000000000000000000000000000000000000000008152600401611985906143b1565b60405180910390fd5b80600160008573ffffffffffffffffffffffffffffffffffffffff1673ffffffffffffffffffffffffffffffffffffffff16815260200190815260200160002060008473ffffffffffffffffffffffffffffffffffffffff1673ffffffffffffffffffffffffffffffffffffffff16815260200190815260200160002060006101000a81548160ff0219169083151502179055508173ffffffffffffffffffffffffffffffffffffffff168373ffffffffffffffffffffffffffffffffffffffff167f17307eab39ab6107e8899845ad3d59bd9653f200f220920489ca2b5937696c3183604051611a7f9190612f22565b60405180910390a3505050565b600073ffffffffffffffffffffffffffffffffffffffff168473ffffffffffffffffffffffffffffffffffffffff161415611afc576040517f08c379a0000000000000000000000000000000000000000000000000000000008152600401611af39061417c565b60405180910390fd5b8151835114611b40576040517f08c379a0000000000000000000000000000000000000000000000000000000008152600401611b3790614021565b60405180910390fd5b6000611b4a61141e565b9050611b5b81600087878787612312565b60005b8451811015611c1457838181518110611b7a57611b79613d99565b5b6020026020010151600080878481518110611b9857611b97613d99565b5b6020026020010151815260200190815260200160002060008873ffffffffffffffffffffffffffffffffffffffff1673ffffffffffffffffffffffffffffffffffffffff1681526020019081526020016000206000828254611bfa919061419c565b925050819055508080611c0c90613b9a565b915050611b5e565b508473ffffffffffffffffffffffffffffffffffffffff16600073ffffffffffffffffffffffffffffffffffffffff168273ffffffffffffffffffffffffffffffffffffffff167f4a39dc06d4c0dbc64b70af90fd698a233a518aa5d07e595d983b8c0526c8f7fb8787604051611c8c9291906140d3565b60405180910390a4611ca381600087878787612328565b611cb281600087878787612591565b5050505050565b600073ffffffffffffffffffffffffffffffffffffffff168473ffffffffffffffffffffffffffffffffffffffff161415611d29576040517f08c379a0000000000000000000000000000000000000000000000000000000008152600401611d209061428d565b60405180910390fd5b6000611d3361141e565b90506000611d4085612330565b90506000611d4d85612330565b9050611d5d838989858589612312565b600080600088815260200190815260200160002060008a73ffffffffffffffffffffffffffffffffffffffff1673ffffffffffffffffffffffffffffffffffffffff16815260200190815260200160002054905085811015611df4576040517f08c379a0000000000000000000000000000000000000000000000000000000008152600401611deb9061431f565b60405180910390fd5b85810360008089815260200190815260200160002060008b73ffffffffffffffffffffffffffffffffffffffff1673ffffffffffffffffffffffffffffffffffffffff168152602001908152602001600020819055508560008089815260200190815260200160002060008a73ffffffffffffffffffffffffffffffffffffffff1673ffffffffffffffffffffffffffffffffffffffff1681526020019081526020016000206000828254611ea9919061419c565b925050819055508773ffffffffffffffffffffffffffffffffffffffff168973ffffffffffffffffffffffffffffffffffffffff168573ffffffffffffffffffffffffffffffffffffffff167fc3d58168c5ae7397731d063d5bbf3d657854427343f4c083240f7aacaa2d0f628a8a604051611f269291906141f2565b60405180910390a4611f3c848a8a86868a612328565b611f4a848a8a8a8a8a6123aa565b505050505050505050565b600073ffffffffffffffffffffffffffffffffffffffff168373ffffffffffffffffffffffffffffffffffffffff161415611fc5576040517f08c379a0000000000000000000000000000000000000000000000000000000008152600401611fbc90613f8f565b60405180910390fd5b6000611fcf61141e565b90506000611fdc84612330565b90506000611fe984612330565b905061200983876000858560405180602001604052806000815250612312565b600080600087815260200190815260200160002060008873ffffffffffffffffffffffffffffffffffffffff1673ffffffffffffffffffffffffffffffffffffffff168152602001908152602001600020549050848110156120a0576040517f08c379a0000000000000000000000000000000000000000000000000000000008152600401612097906140b3565b60405180910390fd5b84810360008088815260200190815260200160002060008973ffffffffffffffffffffffffffffffffffffffff1673ffffffffffffffffffffffffffffffffffffffff16815260200190815260200160002081905550600073ffffffffffffffffffffffffffffffffffffffff168773ffffffffffffffffffffffffffffffffffffffff168573ffffffffffffffffffffffffffffffffffffffff167fc3d58168c5ae7397731d063d5bbf3d657854427343f4c083240f7aacaa2d0f62898960405161216d9291906141f2565b60405180910390a461219384886000868660405180602001604052806000815250612328565b50505050505050565b60007fd9b67a26000000000000000000000000000000000000000000000000000000007bffffffffffffffffffffffffffffffffffffffffffffffffffffffff1916827bffffffffffffffffffffffffffffffffffffffffffffffffffffffff1916148061226757507f0e89341c000000000000000000000000000000000000000000000000000000007bffffffffffffffffffffffffffffffffffffffffffffffffffffffff1916827bffffffffffffffffffffffffffffffffffffffffffffffffffffffff1916145b806122775750612276826127fd565b5b9050919050565b60606002805461228d90613df7565b80601f01602080910402602001604051908101604052809291908181526020018280546122b990613df7565b80156123065780601f106122db57610100808354040283529160200191612306565b820191906000526020600020905b8154815290600101906020018083116122e957829003601f168201915b50505050509050919050565b612320868686868686612867565b505050505050565b505050505050565b60606000600167ffffffffffffffff81111561234f5761234e61302a565b5b60405190808252806020026020018201604052801561237d5781602001602082028036833780820191505090505b509050828160008151811061239557612394613d99565b5b60200260200101818152505080915050919050565b6123c98473ffffffffffffffffffffffffffffffffffffffff16612a39565b15612589578373ffffffffffffffffffffffffffffffffffffffff1663f23a6e6187878686866040518663ffffffff1660e01b815260040161240f959493929190614435565b602060405180830381600087803b15801561242957600080fd5b505af192505050801561245a57506040513d601f19601f8201168201806040525081019061245791906144a4565b60015b612500576124666144de565b806308c379a014156124c3575061247b614500565b8061248657506124c5565b806040517f08c379a00000000000000000000000000000000000000000000000000000000081526004016124ba9190613003565b60405180910390fd5b505b6040517f08c379a00000000000000000000000000000000000000000000000000000000081526004016124f790614608565b60405180910390fd5b63f23a6e6160e01b7bffffffffffffffffffffffffffffffffffffffffffffffffffffffff1916817bffffffffffffffffffffffffffffffffffffffffffffffffffffffff191614612587576040517f08c379a000000000000000000000000000000000000000000000000000000000815260040161257e9061469a565b60405180910390fd5b505b505050505050565b6125b08473ffffffffffffffffffffffffffffffffffffffff16612a39565b15612770578373ffffffffffffffffffffffffffffffffffffffff1663bc197c8187878686866040518663ffffffff1660e01b81526004016125f69594939291906146ba565b602060405180830381600087803b15801561261057600080fd5b505af192505050801561264157506040513d601f19601f8201168201806040525081019061263e91906144a4565b60015b6126e75761264d6144de565b806308c379a014156126aa5750612662614500565b8061266d57506126ac565b806040517f08c379a00000000000000000000000000000000000000000000000000000000081526004016126a19190613003565b60405180910390fd5b505b6040517f08c379a00000000000000000000000000000000000000000000000000000000081526004016126de90614608565b60405180910390fd5b63bc197c8160e01b7bffffffffffffffffffffffffffffffffffffffffffffffffffffffff1916817bffffffffffffffffffffffffffffffffffffffffffffffffffffffff19161461276e576040517f08c379a00000000000000000000000000000000000000000000000000000000081526004016127659061469a565b60405180910390fd5b505b505050505050565b6127828282610a7d565b6127f95761278f81612a5c565b61279d8360001c6020612a89565b6040516020016127ae9291906147ba565b6040516020818303038152906040526040517f08c379a00000000000000000000000000000000000000000000000000000000081526004016127f09190613003565b60405180910390fd5b5050565b60007f01ffc9a7000000000000000000000000000000000000000000000000000000007bffffffffffffffffffffffffffffffffffffffffffffffffffffffff1916827bffffffffffffffffffffffffffffffffffffffffffffffffffffffff1916149050919050565b612875868686868686612cc5565b600073ffffffffffffffffffffffffffffffffffffffff168573ffffffffffffffffffffffffffffffffffffffff1614156129275760005b8351811015612925578281815181106128c9576128c8613d99565b5b6020026020010151600660008684815181106128e8576128e7613d99565b5b60200260200101518152602001908152602001600020600082825461290d919061419c565b925050819055508061291e90613b9a565b90506128ad565b505b600073ffffffffffffffffffffffffffffffffffffffff168473ffffffffffffffffffffffffffffffffffffffff161415612a315760005b8351811015612a2f57600084828151811061297d5761297c613d99565b5b60200260200101519050600084838151811061299c5761299b613d99565b5b6020026020010151905060006006600084815260200190815260200160002054905081811015612a01576040517f08c379a00000000000000000000000000000000000000000000000000000000081526004016129f890614866565b60405180910390fd5b818103600660008581526020019081526020016000208190555050505080612a2890613b9a565b905061295f565b505b505050505050565b6000808273ffffffffffffffffffffffffffffffffffffffff163b119050919050565b6060612a828273ffffffffffffffffffffffffffffffffffffffff16601460ff16612a89565b9050919050565b606060006002836002612a9c9190614886565b612aa6919061419c565b67ffffffffffffffff811115612abf57612abe61302a565b5b6040519080825280601f01601f191660200182016040528015612af15781602001600182028036833780820191505090505b5090507f300000000000000000000000000000000000000000000000000000000000000081600081518110612b2957612b28613d99565b5b60200101907effffffffffffffffffffffffffffffffffffffffffffffffffffffffffffff1916908160001a9053507f780000000000000000000000000000000000000000000000000000000000000081600181518110612b8d57612b8c613d99565b5b60200101907effffffffffffffffffffffffffffffffffffffffffffffffffffffffffffff1916908160001a90535060006001846002612bcd9190614886565b612bd7919061419c565b90505b6001811115612c77577f3031323334353637383961626364656600000000000000000000000000000000600f861660108110612c1957612c18613d99565b5b1a60f81b828281518110612c3057612c2f613d99565b5b60200101907effffffffffffffffffffffffffffffffffffffffffffffffffffffffffffff1916908160001a905350600485901c945080612c70906148e0565b9050612bda565b5060008414612cbb576040517f08c379a0000000000000000000000000000000000000000000000000000000008152600401612cb290614956565b60405180910390fd5b8091505092915050565b505050505050565b828054612cd990613df7565b90600052602060002090601f016020900481019282612cfb5760008555612d42565b82601f10612d1457805160ff1916838001178555612d42565b82800160010185558215612d42579182015b82811115612d41578251825591602001919060010190612d26565b5b509050612d4f9190612d53565b5090565b5b80821115612d6c576000816000905550600101612d54565b5090565b6000604051905090565b600080fd5b600080fd5b600073ffffffffffffffffffffffffffffffffffffffff82169050919050565b6000612daf82612d84565b9050919050565b612dbf81612da4565b8114612dca57600080fd5b50565b600081359050612ddc81612db6565b92915050565b6000819050919050565b612df581612de2565b8114612e0057600080fd5b50565b600081359050612e1281612dec565b92915050565b60008060408385031215612e2f57612e2e612d7a565b5b6000612e3d85828601612dcd565b9250506020612e4e85828601612e03565b9150509250929050565b612e6181612de2565b82525050565b6000602082019050612e7c6000830184612e58565b92915050565b60007fffffffff0000000000000000000000000000000000000000000000000000000082169050919050565b612eb781612e82565b8114612ec257600080fd5b50565b600081359050612ed481612eae565b92915050565b600060208284031215612ef057612eef612d7a565b5b6000612efe84828501612ec5565b91505092915050565b60008115159050919050565b612f1c81612f07565b82525050565b6000602082019050612f376000830184612f13565b92915050565b600060208284031215612f5357612f52612d7a565b5b6000612f6184828501612e03565b91505092915050565b600081519050919050565b600082825260208201905092915050565b60005b83811015612fa4578082015181840152602081019050612f89565b83811115612fb3576000848401525b50505050565b6000601f19601f8301169050919050565b6000612fd582612f6a565b612fdf8185612f75565b9350612fef818560208601612f86565b612ff881612fb9565b840191505092915050565b6000602082019050818103600083015261301d8184612fca565b905092915050565b600080fd5b7f4e487b7100000000000000000000000000000000000000000000000000000000600052604160045260246000fd5b61306282612fb9565b810181811067ffffffffffffffff821117156130815761308061302a565b5b80604052505050565b6000613094612d70565b90506130a08282613059565b919050565b600067ffffffffffffffff8211156130c0576130bf61302a565b5b602082029050602081019050919050565b600080fd5b60006130e96130e4846130a5565b61308a565b9050808382526020820190506020840283018581111561310c5761310b6130d1565b5b835b8181101561313557806131218882612e03565b84526020840193505060208101905061310e565b5050509392505050565b600082601f83011261315457613153613025565b5b81356131648482602086016130d6565b91505092915050565b600080fd5b600067ffffffffffffffff82111561318d5761318c61302a565b5b61319682612fb9565b9050602081019050919050565b82818337600083830152505050565b60006131c56131c084613172565b61308a565b9050828152602081018484840111156131e1576131e061316d565b5b6131ec8482856131a3565b509392505050565b600082601f83011261320957613208613025565b5b81356132198482602086016131b2565b91505092915050565b6000806000806080858703121561323c5761323b612d7a565b5b600085013567ffffffffffffffff81111561325a57613259612d7f565b5b6132668782880161313f565b945050602085013567ffffffffffffffff81111561328757613286612d7f565b5b6132938782880161313f565b935050604085013567ffffffffffffffff8111156132b4576132b3612d7f565b5b6132c0878288016131f4565b92505060606132d187828801612e03565b91505092959194509250565b6000819050919050565b6132f0816132dd565b81146132fb57600080fd5b50565b60008135905061330d816132e7565b92915050565b60006020828403121561332957613328612d7a565b5b6000613337848285016132fe565b91505092915050565b613349816132dd565b82525050565b60006020820190506133646000830184613340565b92915050565b600067ffffffffffffffff8211156133855761338461302a565b5b61338e82612fb9565b9050602081019050919050565b60006133ae6133a98461336a565b61308a565b9050828152602081018484840111156133ca576133c961316d565b5b6133d58482856131a3565b509392505050565b600082601f8301126133f2576133f1613025565b5b813561340284826020860161339b565b91505092915050565b600080600080600060a0868803121561342757613426612d7a565b5b600061343588828901612dcd565b955050602061344688828901612dcd565b945050604086013567ffffffffffffffff81111561346757613466612d7f565b5b6134738882890161313f565b935050606086013567ffffffffffffffff81111561349457613493612d7f565b5b6134a08882890161313f565b925050608086013567ffffffffffffffff8111156134c1576134c0612d7f565b5b6134cd888289016133dd565b9150509295509295909350565b600080604083850312156134f1576134f0612d7a565b5b60006134ff858286016132fe565b925050602061351085828601612dcd565b9150509250929050565b600067ffffffffffffffff8211156135355761353461302a565b5b602082029050602081019050919050565b60006135596135548461351a565b61308a565b9050808382526020820190506020840283018581111561357c5761357b6130d1565b5b835b818110156135a557806135918882612dcd565b84526020840193505060208101905061357e565b5050509392505050565b600082601f8301126135c4576135c3613025565b5b81356135d4848260208601613546565b91505092915050565b600080604083850312156135f4576135f3612d7a565b5b600083013567ffffffffffffffff81111561361257613611612d7f565b5b61361e858286016135af565b925050602083013567ffffffffffffffff81111561363f5761363e612d7f565b5b61364b8582860161313f565b9150509250929050565b600081519050919050565b600082825260208201905092915050565b6000819050602082019050919050565b61368a81612de2565b82525050565b600061369c8383613681565b60208301905092915050565b6000602082019050919050565b60006136c082613655565b6136ca8185613660565b93506136d583613671565b8060005b838110156137065781516136ed8882613690565b97506136f8836136a8565b9250506001810190506136d9565b5085935050505092915050565b6000602082019050818103600083015261372d81846136b5565b905092915050565b6000806040838503121561374c5761374b612d7a565b5b600061375a85828601612e03565b925050602083013567ffffffffffffffff81111561377b5761377a612d7f565b5b613787858286016131f4565b9150509250929050565b6000806000606084860312156137aa576137a9612d7a565b5b60006137b886828701612dcd565b935050602084013567ffffffffffffffff8111156137d9576137d8612d7f565b5b6137e58682870161313f565b925050604084013567ffffffffffffffff81111561380657613805612d7f565b5b6138128682870161313f565b9150509250925092565b60008060006060848603121561383557613834612d7a565b5b600061384386828701612e03565b935050602061385486828701612e03565b925050604084013567ffffffffffffffff81111561387557613874612d7f565b5b613881868287016131f4565b9150509250925092565b600080604083850312156138a2576138a1612d7a565b5b60006138b085828601612e03565b92505060206138c185828601612e03565b9150509250929050565b6138d481612f07565b81146138df57600080fd5b50565b6000813590506138f1816138cb565b92915050565b6000806040838503121561390e5761390d612d7a565b5b600061391c85828601612dcd565b925050602061392d858286016138e2565b9150509250929050565b6000806040838503121561394e5761394d612d7a565b5b600083013567ffffffffffffffff81111561396c5761396b612d7f565b5b6139788582860161313f565b925050602083013567ffffffffffffffff81111561399957613998612d7f565b5b6139a58582860161313f565b9150509250929050565b600080604083850312156139c6576139c5612d7a565b5b60006139d485828601612dcd565b92505060206139e585828601612dcd565b9150509250929050565b600080600080600060a08688031215613a0b57613a0a612d7a565b5b6000613a1988828901612dcd565b9550506020613a2a88828901612dcd565b9450506040613a3b88828901612e03565b9350506060613a4c88828901612e03565b925050608086013567ffffffffffffffff811115613a6d57613a6c612d7f565b5b613a79888289016133dd565b9150509295509295909350565b600080600060608486031215613a9f57613a9e612d7a565b5b6000613aad86828701612dcd565b9350506020613abe86828701612e03565b9250506040613acf86828701612e03565b9150509250925092565b7f455243313135353a2061646472657373207a65726f206973206e6f742061207660008201527f616c6964206f776e657200000000000000000000000000000000000000000000602082015250565b6000613b35602a83612f75565b9150613b4082613ad9565b604082019050919050565b60006020820190508181036000830152613b6481613b28565b9050919050565b7f4e487b7100000000000000000000000000000000000000000000000000000000600052601160045260246000fd5b6000613ba582612de2565b91507fffffffffffffffffffffffffffffffffffffffffffffffffffffffffffffffff821415613bd857613bd7613b6b565b5b600182019050919050565b7f455243313135353a2063616c6c6572206973206e6f7420746f6b656e206f776e60008201527f6572206f7220617070726f766564000000000000000000000000000000000000602082015250565b6000613c3f602e83612f75565b9150613c4a82613be3565b604082019050919050565b60006020820190508181036000830152613c6e81613c32565b9050919050565b7f416363657373436f6e74726f6c3a2063616e206f6e6c792072656e6f756e636560008201527f20726f6c657320666f722073656c660000000000000000000000000000000000602082015250565b6000613cd1602f83612f75565b9150613cdc82613c75565b604082019050919050565b60006020820190508181036000830152613d0081613cc4565b9050919050565b7f455243313135353a206163636f756e747320616e6420696473206c656e67746860008201527f206d69736d617463680000000000000000000000000000000000000000000000602082015250565b6000613d63602983612f75565b9150613d6e82613d07565b604082019050919050565b60006020820190508181036000830152613d9281613d56565b9050919050565b7f4e487b7100000000000000000000000000000000000000000000000000000000600052603260045260246000fd5b7f4e487b7100000000000000000000000000000000000000000000000000000000600052602260045260246000fd5b60006002820490506001821680613e0f57607f821691505b60208210811415613e2357613e22613dc8565b5b50919050565b600081905092915050565b60008190508160005260206000209050919050565b60008154613e5681613df7565b613e608186613e29565b94506001821660008114613e7b5760018114613e8c57613ebf565b60ff19831686528186019350613ebf565b613e9585613e34565b60005b83811015613eb757815481890152600182019150602081019050613e98565b838801955050505b50505092915050565b6000613ed382612f6a565b613edd8185613e29565b9350613eed818560208601612f86565b80840191505092915050565b6000613f058285613e49565b9150613f118284613ec8565b91508190509392505050565b7f455243313135353a206275726e2066726f6d20746865207a65726f206164647260008201527f6573730000000000000000000000000000000000000000000000000000000000602082015250565b6000613f79602383612f75565b9150613f8482613f1d565b604082019050919050565b60006020820190508181036000830152613fa881613f6c565b9050919050565b7f455243313135353a2069647320616e6420616d6f756e7473206c656e6774682060008201527f6d69736d61746368000000000000000000000000000000000000000000000000602082015250565b600061400b602883612f75565b915061401682613faf565b604082019050919050565b6000602082019050818103600083015261403a81613ffe565b9050919050565b7f455243313135353a206275726e20616d6f756e7420657863656564732062616c60008201527f616e636500000000000000000000000000000000000000000000000000000000602082015250565b600061409d602483612f75565b91506140a882614041565b604082019050919050565b600060208201905081810360008301526140cc81614090565b9050919050565b600060408201905081810360008301526140ed81856136b5565b9050818103602083015261410181846136b5565b90509392505050565b7f455243313135353a206d696e7420746f20746865207a65726f2061646472657360008201527f7300000000000000000000000000000000000000000000000000000000000000602082015250565b6000614166602183612f75565b91506141718261410a565b604082019050919050565b6000602082019050818103600083015261419581614159565b9050919050565b60006141a782612de2565b91506141b283612de2565b9250827fffffffffffffffffffffffffffffffffffffffffffffffffffffffffffffffff038211156141e7576141e6613b6b565b5b828201905092915050565b60006040820190506142076000830185612e58565b6142146020830184612e58565b9392505050565b7f455243313135353a207472616e7366657220746f20746865207a65726f20616460008201527f6472657373000000000000000000000000000000000000000000000000000000602082015250565b6000614277602583612f75565b91506142828261421b565b604082019050919050565b600060208201905081810360008301526142a68161426a565b9050919050565b7f455243313135353a20696e73756666696369656e742062616c616e636520666f60008201527f72207472616e7366657200000000000000000000000000000000000000000000602082015250565b6000614309602a83612f75565b9150614314826142ad565b604082019050919050565b60006020820190508181036000830152614338816142fc565b9050919050565b7f455243313135353a2073657474696e6720617070726f76616c2073746174757360008201527f20666f722073656c660000000000000000000000000000000000000000000000602082015250565b600061439b602983612f75565b91506143a68261433f565b604082019050919050565b600060208201905081810360008301526143ca8161438e565b9050919050565b6143da81612da4565b82525050565b600081519050919050565b600082825260208201905092915050565b6000614407826143e0565b61441181856143eb565b9350614421818560208601612f86565b61442a81612fb9565b840191505092915050565b600060a08201905061444a60008301886143d1565b61445760208301876143d1565b6144646040830186612e58565b6144716060830185612e58565b818103608083015261448381846143fc565b90509695505050505050565b60008151905061449e81612eae565b92915050565b6000602082840312156144ba576144b9612d7a565b5b60006144c88482850161448f565b91505092915050565b60008160e01c9050919050565b600060033d11156144fd5760046000803e6144fa6000516144d1565b90505b90565b600060443d101561451057614593565b614518612d70565b60043d036004823e80513d602482011167ffffffffffffffff82111715614540575050614593565b808201805167ffffffffffffffff81111561455e5750505050614593565b80602083010160043d03850181111561457b575050505050614593565b61458a82602001850186613059565b82955050505050505b90565b7f455243313135353a207472616e7366657220746f206e6f6e2d4552433131353560008201527f526563656976657220696d706c656d656e746572000000000000000000000000602082015250565b60006145f2603483612f75565b91506145fd82614596565b604082019050919050565b60006020820190508181036000830152614621816145e5565b9050919050565b7f455243313135353a204552433131353552656365697665722072656a6563746560008201527f6420746f6b656e73000000000000000000000000000000000000000000000000602082015250565b6000614684602883612f75565b915061468f82614628565b604082019050919050565b600060208201905081810360008301526146b381614677565b9050919050565b600060a0820190506146cf60008301886143d1565b6146dc60208301876143d1565b81810360408301526146ee81866136b5565b9050818103606083015261470281856136b5565b9050818103608083015261471681846143fc565b90509695505050505050565b7f416363657373436f6e74726f6c3a206163636f756e7420000000000000000000600082015250565b6000614758601783613e29565b915061476382614722565b601782019050919050565b7f206973206d697373696e6720726f6c6520000000000000000000000000000000600082015250565b60006147a4601183613e29565b91506147af8261476e565b601182019050919050565b60006147c58261474b565b91506147d18285613ec8565b91506147dc82614797565b91506147e88284613ec8565b91508190509392505050565b7f455243313135353a206275726e20616d6f756e74206578636565647320746f7460008201527f616c537570706c79000000000000000000000000000000000000000000000000602082015250565b6000614850602883612f75565b915061485b826147f4565b604082019050919050565b6000602082019050818103600083015261487f81614843565b9050919050565b600061489182612de2565b915061489c83612de2565b9250817fffffffffffffffffffffffffffffffffffffffffffffffffffffffffffffffff04831182151516156148d5576148d4613b6b565b5b828202905092915050565b60006148eb82612de2565b915060008214156148ff576148fe613b6b565b5b600182039050919050565b7f537472696e67733a20686578206c656e67746820696e73756666696369656e74600082015250565b6000614940602083612f75565b915061494b8261490a565b602082019050919050565b6000602082019050818103600083015261496f81614933565b905091905056fea2646970667358221220e0cb209b1acf09c8eb70d29562aa2129f59932f0d13ff487a7a6815ac649758064736f6c63430008090033697066733a2f2f62616679626569667772646a37697263787a61716b777a6163647033676b63616d6e686761776d666c6e7968376c636375736434336e69797670752f7b69647d2e6a736f6e",
  "linkReferences": {},
  "deployedLinkReferences": {}
}